{
  "_format": "hh-sol-artifact-1",
  "contractName": "Storage",
  "sourceName": "contracts/storage.sol",
  "abi": [
    {
      "anonymous": false,
      "inputs": [
        {
          "indexed": false,
          "internalType": "uint256",
          "name": "index",
          "type": "uint256"
        },
        {
          "indexed": false,
          "internalType": "string",
          "name": "name",
          "type": "string"
        },
        {
          "indexed": false,
          "internalType": "uint256",
          "name": "size",
          "type": "uint256"
        },
        {
          "indexed": false,
          "internalType": "string",
          "name": "mimeType",
          "type": "string"
        },
        {
          "indexed": false,
          "internalType": "string",
          "name": "hash",
          "type": "string"
        },
        {
          "indexed": false,
          "internalType": "uint256",
          "name": "uploadTime",
          "type": "uint256"
        }
      ],
      "name": "FileRemoved",
      "type": "event"
    },
    {
      "anonymous": false,
      "inputs": [
        {
          "indexed": false,
          "internalType": "address",
          "name": "to",
          "type": "address"
        },
        {
          "indexed": false,
          "internalType": "uint256",
          "name": "index",
          "type": "uint256"
        },
        {
          "indexed": false,
          "internalType": "string",
          "name": "name",
          "type": "string"
        },
        {
          "indexed": false,
          "internalType": "uint256",
          "name": "size",
          "type": "uint256"
        },
        {
          "indexed": false,
          "internalType": "string",
          "name": "mimeType",
          "type": "string"
        },
        {
          "indexed": false,
          "internalType": "string",
          "name": "hash",
          "type": "string"
        },
        {
          "indexed": false,
          "internalType": "uint256",
          "name": "uploadTime",
          "type": "uint256"
        }
      ],
      "name": "FileShared",
      "type": "event"
    },
    {
      "anonymous": false,
      "inputs": [
        {
          "indexed": false,
          "internalType": "uint256",
          "name": "index",
          "type": "uint256"
        },
        {
          "indexed": false,
          "internalType": "string",
          "name": "name",
          "type": "string"
        },
        {
          "indexed": false,
          "internalType": "uint256",
          "name": "size",
          "type": "uint256"
        },
        {
          "indexed": false,
          "internalType": "string",
          "name": "mimeType",
          "type": "string"
        },
        {
          "indexed": false,
          "internalType": "string",
          "name": "hash",
          "type": "string"
        },
        {
          "indexed": false,
          "internalType": "uint256",
          "name": "uploadTime",
          "type": "uint256"
        }
      ],
      "name": "FileStored",
      "type": "event"
    },
    {
      "inputs": [],
      "name": "getAllFiles",
      "outputs": [
        {
          "components": [
            {
              "internalType": "uint256",
              "name": "index",
              "type": "uint256"
            },
            {
              "internalType": "string",
              "name": "name",
              "type": "string"
            },
            {
              "internalType": "uint256",
              "name": "size",
              "type": "uint256"
            },
            {
              "internalType": "string",
              "name": "mimeType",
              "type": "string"
            },
            {
              "internalType": "string",
              "name": "hash",
              "type": "string"
            },
            {
              "internalType": "uint256",
              "name": "uploadTime",
              "type": "uint256"
            }
          ],
          "internalType": "struct Storage.File[]",
          "name": "",
          "type": "tuple[]"
        }
      ],
      "stateMutability": "view",
      "type": "function"
    },
    {
      "inputs": [],
      "name": "getFilesCount",
      "outputs": [
        {
          "internalType": "uint256",
          "name": "",
          "type": "uint256"
        }
      ],
      "stateMutability": "view",
      "type": "function"
    },
    {
      "inputs": [
        {
          "internalType": "uint256",
          "name": "_startIndex",
          "type": "uint256"
        },
        {
          "internalType": "uint256",
          "name": "_endIndex",
          "type": "uint256"
        }
      ],
      "name": "getRangeOfFiles",
      "outputs": [
        {
          "components": [
            {
              "internalType": "uint256",
              "name": "index",
              "type": "uint256"
            },
            {
              "internalType": "string",
              "name": "name",
              "type": "string"
            },
            {
              "internalType": "uint256",
              "name": "size",
              "type": "uint256"
            },
            {
              "internalType": "string",
              "name": "mimeType",
              "type": "string"
            },
            {
              "internalType": "string",
              "name": "hash",
              "type": "string"
            },
            {
              "internalType": "uint256",
              "name": "uploadTime",
              "type": "uint256"
            }
          ],
          "internalType": "struct Storage.File[]",
          "name": "",
          "type": "tuple[]"
        }
      ],
      "stateMutability": "view",
      "type": "function"
    },
    {
      "inputs": [
        {
          "internalType": "uint256",
          "name": "_index",
          "type": "uint256"
        }
      ],
      "name": "getSingleFile",
      "outputs": [
        {
          "components": [
            {
              "internalType": "uint256",
              "name": "index",
              "type": "uint256"
            },
            {
              "internalType": "string",
              "name": "name",
              "type": "string"
            },
            {
              "internalType": "uint256",
              "name": "size",
              "type": "uint256"
            },
            {
              "internalType": "string",
              "name": "mimeType",
              "type": "string"
            },
            {
              "internalType": "string",
              "name": "hash",
              "type": "string"
            },
            {
              "internalType": "uint256",
              "name": "uploadTime",
              "type": "uint256"
            }
          ],
          "internalType": "struct Storage.File",
          "name": "",
          "type": "tuple"
        }
      ],
      "stateMutability": "view",
      "type": "function"
    },
    {
      "inputs": [
        {
          "internalType": "uint256",
          "name": "_index",
          "type": "uint256"
        }
      ],
      "name": "removeFile",
      "outputs": [],
      "stateMutability": "nonpayable",
      "type": "function"
    },
    {
      "inputs": [
        {
          "internalType": "address",
          "name": "_to",
          "type": "address"
        },
        {
          "internalType": "uint256",
          "name": "_index",
          "type": "uint256"
        }
      ],
      "name": "shareFile",
      "outputs": [],
      "stateMutability": "nonpayable",
      "type": "function"
    },
    {
      "inputs": [
        {
          "internalType": "string",
          "name": "_name",
          "type": "string"
        },
        {
          "internalType": "uint256",
          "name": "_size",
          "type": "uint256"
        },
        {
          "internalType": "string",
          "name": "_mimeType",
          "type": "string"
        },
        {
          "internalType": "string",
          "name": "_hash",
          "type": "string"
        }
      ],
      "name": "storeFile",
      "outputs": [],
      "stateMutability": "nonpayable",
      "type": "function"
    }
  ],
  "bytecode": "0x608060405234801561001057600080fd5b506130d4806100206000396000f3fe608060405234801561001057600080fd5b506004361061007d5760003560e01c80639926b03f1161005b5780639926b03f146100fe578063a3322a121461011a578063c11126e514610138578063ff24b5d5146101545761007d565b80636d429aac14610082578063738203551461009e57806398abe804146100ce575b600080fd5b61009c6004803603810190610097919061220d565b610172565b005b6100b860048036038101906100b391906122b8565b61060b565b6040516100c59190612a5e565b60405180910390f35b6100e860048036038101906100e391906122e1565b610900565b6040516100f5919061289c565b60405180910390f35b610118600480360381019061011391906122b8565b610e03565b005b61012261162b565b60405161012f9190612a80565b60405180910390f35b610152600480360381019061014d91906121d1565b611674565b005b61015c611c8a565b604051610169919061289c565b60405180910390f35b60008451116101b6576040517f08c379a00000000000000000000000000000000000000000000000000000000081526004016101ad906128be565b60405180910390fd5b610200845111156101fc576040517f08c379a00000000000000000000000000000000000000000000000000000000081526004016101f390612a1e565b60405180910390fd5b6000831161023f576040517f08c379a00000000000000000000000000000000000000000000000000000000081526004016102369061297e565b60405180910390fd5b6340000000831115610286576040517f08c379a000000000000000000000000000000000000000000000000000000000815260040161027d9061295e565b60405180910390fd5b60008251116102ca576040517f08c379a00000000000000000000000000000000000000000000000000000000081526004016102c1906129de565b60405180910390fd5b61020082511115610310576040517f08c379a00000000000000000000000000000000000000000000000000000000081526004016103079061299e565b60405180910390fd5b6000815111610354576040517f08c379a000000000000000000000000000000000000000000000000000000000815260040161034b9061291e565b60405180910390fd5b60006040518060c001604052806000803373ffffffffffffffffffffffffffffffffffffffff1673ffffffffffffffffffffffffffffffffffffffff1681526020019081526020016000208054905081526020018681526020018581526020018481526020018381526020014281525090506000600160003373ffffffffffffffffffffffffffffffffffffffff1673ffffffffffffffffffffffffffffffffffffffff1681526020019081526020016000208360405161041591906127ea565b9081526020016040518091039020541415610604576000803373ffffffffffffffffffffffffffffffffffffffff1673ffffffffffffffffffffffffffffffffffffffff1681526020019081526020016000208190806001815401808255809150506001900390600052602060002090600602016000909190919091506000820151816000015560208201518160010190805190602001906104b8929190611f99565b506040820151816002015560608201518160030190805190602001906104df929190611f99565b5060808201518160040190805190602001906104fc929190611f99565b5060a0820151816005015550506000803373ffffffffffffffffffffffffffffffffffffffff1673ffffffffffffffffffffffffffffffffffffffff16815260200190815260200160002080549050600160003373ffffffffffffffffffffffffffffffffffffffff1673ffffffffffffffffffffffffffffffffffffffff1681526020019081526020016000208360405161059891906127ea565b9081526020016040518091039020819055507f5c7876216fa5f60fc06dee2a51243dca8846c23197e7981ef8bcfcd995eb399e816000015182602001518360400151846060015185608001518660a001516040516105fb96959493929190612a9b565b60405180910390a15b5050505050565b61061361201f565b6000803373ffffffffffffffffffffffffffffffffffffffff1673ffffffffffffffffffffffffffffffffffffffff168152602001908152602001600020805490508210610696576040517f08c379a000000000000000000000000000000000000000000000000000000000815260040161068d906129fe565b60405180910390fd5b6000803373ffffffffffffffffffffffffffffffffffffffff1673ffffffffffffffffffffffffffffffffffffffff168152602001908152602001600020828154811061070c577f4e487b7100000000000000000000000000000000000000000000000000000000600052603260045260246000fd5b90600052602060002090600602016040518060c00160405290816000820154815260200160018201805461073f90612c9f565b80601f016020809104026020016040519081016040528092919081815260200182805461076b90612c9f565b80156107b85780601f1061078d576101008083540402835291602001916107b8565b820191906000526020600020905b81548152906001019060200180831161079b57829003601f168201915b50505050508152602001600282015481526020016003820180546107db90612c9f565b80601f016020809104026020016040519081016040528092919081815260200182805461080790612c9f565b80156108545780601f1061082957610100808354040283529160200191610854565b820191906000526020600020905b81548152906001019060200180831161083757829003601f168201915b5050505050815260200160048201805461086d90612c9f565b80601f016020809104026020016040519081016040528092919081815260200182805461089990612c9f565b80156108e65780601f106108bb576101008083540402835291602001916108e6565b820191906000526020600020905b8154815290600101906020018083116108c957829003601f168201915b505050505081526020016005820154815250509050919050565b606060008060003373ffffffffffffffffffffffffffffffffffffffff1673ffffffffffffffffffffffffffffffffffffffff1681526020019081526020016000208054905011610986576040517f08c379a000000000000000000000000000000000000000000000000000000000815260040161097d9061293e565b60405180910390fd5b6000803373ffffffffffffffffffffffffffffffffffffffff1673ffffffffffffffffffffffffffffffffffffffff168152602001908152602001600020805490508310610a09576040517f08c379a0000000000000000000000000000000000000000000000000000000008152600401610a00906129fe565b60405180910390fd5b828211610a4b576040517f08c379a0000000000000000000000000000000000000000000000000000000008152600401610a42906129be565b60405180910390fd5b610a96826000803373ffffffffffffffffffffffffffffffffffffffff1673ffffffffffffffffffffffffffffffffffffffff16815260200190815260200160002080549050611f7d565b915060008383610aa69190612bed565b905060008167ffffffffffffffff811115610aea577f4e487b7100000000000000000000000000000000000000000000000000000000600052604160045260246000fd5b604051908082528060200260200182016040528015610b2357816020015b610b1061201f565b815260200190600190039081610b085790505b50905060008590505b84811015610df7576000803373ffffffffffffffffffffffffffffffffffffffff1673ffffffffffffffffffffffffffffffffffffffff1681526020019081526020016000208181548110610baa577f4e487b7100000000000000000000000000000000000000000000000000000000600052603260045260246000fd5b90600052602060002090600602016040518060c001604052908160008201548152602001600182018054610bdd90612c9f565b80601f0160208091040260200160405190810160405280929190818152602001828054610c0990612c9f565b8015610c565780601f10610c2b57610100808354040283529160200191610c56565b820191906000526020600020905b815481529060010190602001808311610c3957829003601f168201915b5050505050815260200160028201548152602001600382018054610c7990612c9f565b80601f0160208091040260200160405190810160405280929190818152602001828054610ca590612c9f565b8015610cf25780601f10610cc757610100808354040283529160200191610cf2565b820191906000526020600020905b815481529060010190602001808311610cd557829003601f168201915b50505050508152602001600482018054610d0b90612c9f565b80601f0160208091040260200160405190810160405280929190818152602001828054610d3790612c9f565b8015610d845780601f10610d5957610100808354040283529160200191610d84565b820191906000526020600020905b815481529060010190602001808311610d6757829003601f168201915b50505050508152602001600582015481525050828783610da49190612bed565b81518110610ddb577f4e487b7100000000000000000000000000000000000000000000000000000000600052603260045260246000fd5b602002602001018190525080610df090612d02565b9050610b2c565b50809250505092915050565b6000803373ffffffffffffffffffffffffffffffffffffffff1673ffffffffffffffffffffffffffffffffffffffff168152602001908152602001600020805490508110610e86576040517f08c379a0000000000000000000000000000000000000000000000000000000008152600401610e7d90612a3e565b60405180910390fd5b60008060003373ffffffffffffffffffffffffffffffffffffffff1673ffffffffffffffffffffffffffffffffffffffff1681526020019081526020016000208281548110610efe577f4e487b7100000000000000000000000000000000000000000000000000000000600052603260045260246000fd5b90600052602060002090600602016040518060c001604052908160008201548152602001600182018054610f3190612c9f565b80601f0160208091040260200160405190810160405280929190818152602001828054610f5d90612c9f565b8015610faa5780601f10610f7f57610100808354040283529160200191610faa565b820191906000526020600020905b815481529060010190602001808311610f8d57829003601f168201915b5050505050815260200160028201548152602001600382018054610fcd90612c9f565b80601f0160208091040260200160405190810160405280929190818152602001828054610ff990612c9f565b80156110465780601f1061101b57610100808354040283529160200191611046565b820191906000526020600020905b81548152906001019060200180831161102957829003601f168201915b5050505050815260200160048201805461105f90612c9f565b80601f016020809104026020016040519081016040528092919081815260200182805461108b90612c9f565b80156110d85780601f106110ad576101008083540402835291602001916110d8565b820191906000526020600020905b8154815290600101906020018083116110bb57829003601f168201915b5050505050815260200160058201548152505090506000803373ffffffffffffffffffffffffffffffffffffffff1673ffffffffffffffffffffffffffffffffffffffff16815260200190815260200160002060016000803373ffffffffffffffffffffffffffffffffffffffff1673ffffffffffffffffffffffffffffffffffffffff168152602001908152602001600020805490506111799190612bed565b815481106111b0577f4e487b7100000000000000000000000000000000000000000000000000000000600052603260045260246000fd5b90600052602060002090600602016000803373ffffffffffffffffffffffffffffffffffffffff1673ffffffffffffffffffffffffffffffffffffffff1681526020019081526020016000208381548110611234577f4e487b7100000000000000000000000000000000000000000000000000000000600052603260045260246000fd5b906000526020600020906006020160008201548160000155600182018160010190805461126090612c9f565b61126b929190612055565b5060028201548160020155600382018160030190805461128a90612c9f565b611295929190612055565b5060048201816004019080546112aa90612c9f565b6112b5929190612055565b5060058201548160050155905050816000803373ffffffffffffffffffffffffffffffffffffffff1673ffffffffffffffffffffffffffffffffffffffff168152602001908152602001600020838154811061133a577f4e487b7100000000000000000000000000000000000000000000000000000000600052603260045260246000fd5b9060005260206000209060060201600001819055506000803373ffffffffffffffffffffffffffffffffffffffff1673ffffffffffffffffffffffffffffffffffffffff1681526020019081526020016000208054806113c3577f4e487b7100000000000000000000000000000000000000000000000000000000600052603160045260246000fd5b60019003818190600052602060002090600602016000808201600090556001820160006113f091906120e2565b600282016000905560038201600061140891906120e2565b60048201600061141891906120e2565b600582016000905550509055600160003373ffffffffffffffffffffffffffffffffffffffff1673ffffffffffffffffffffffffffffffffffffffff168152602001908152602001600020816080015160405161147591906127ea565b908152602001604051809103902054600160003373ffffffffffffffffffffffffffffffffffffffff1673ffffffffffffffffffffffffffffffffffffffff1681526020019081526020016000206000803373ffffffffffffffffffffffffffffffffffffffff1673ffffffffffffffffffffffffffffffffffffffff1681526020019081526020016000208481548110611539577f4e487b7100000000000000000000000000000000000000000000000000000000600052603260045260246000fd5b90600052602060002090600602016004016040516115579190612801565b9081526020016040518091039020819055506000600160003373ffffffffffffffffffffffffffffffffffffffff1673ffffffffffffffffffffffffffffffffffffffff16815260200190815260200160002082608001516040516115bc91906127ea565b9081526020016040518091039020819055507f780c1dcbc24f58f51b26d2a6f88d0e04eb1f5f0c878956b107b7254669305e5e816000015182602001518360400151846060015185608001518660a0015160405161161f96959493929190612a9b565b60405180910390a15050565b60008060003373ffffffffffffffffffffffffffffffffffffffff1673ffffffffffffffffffffffffffffffffffffffff16815260200190815260200160002080549050905090565b6000803373ffffffffffffffffffffffffffffffffffffffff1673ffffffffffffffffffffffffffffffffffffffff1681526020019081526020016000208054905081106116f7576040517f08c379a00000000000000000000000000000000000000000000000000000000081526004016116ee90612a3e565b60405180910390fd5b3373ffffffffffffffffffffffffffffffffffffffff168273ffffffffffffffffffffffffffffffffffffffff161415611766576040517f08c379a000000000000000000000000000000000000000000000000000000000815260040161175d906128fe565b60405180910390fd5b600073ffffffffffffffffffffffffffffffffffffffff168273ffffffffffffffffffffffffffffffffffffffff1614156117d6576040517f08c379a00000000000000000000000000000000000000000000000000000000081526004016117cd906128de565b60405180910390fd5b60008060003373ffffffffffffffffffffffffffffffffffffffff1673ffffffffffffffffffffffffffffffffffffffff168152602001908152602001600020828154811061184e577f4e487b7100000000000000000000000000000000000000000000000000000000600052603260045260246000fd5b90600052602060002090600602016040518060c00160405290816000820154815260200160018201805461188190612c9f565b80601f01602080910402602001604051908101604052809291908181526020018280546118ad90612c9f565b80156118fa5780601f106118cf576101008083540402835291602001916118fa565b820191906000526020600020905b8154815290600101906020018083116118dd57829003601f168201915b505050505081526020016002820154815260200160038201805461191d90612c9f565b80601f016020809104026020016040519081016040528092919081815260200182805461194990612c9f565b80156119965780601f1061196b57610100808354040283529160200191611996565b820191906000526020600020905b81548152906001019060200180831161197957829003601f168201915b505050505081526020016004820180546119af90612c9f565b80601f01602080910402602001604051908101604052809291908181526020018280546119db90612c9f565b8015611a285780601f106119fd57610100808354040283529160200191611a28565b820191906000526020600020905b815481529060010190602001808311611a0b57829003601f168201915b5050505050815260200160058201548152505090506000600160008573ffffffffffffffffffffffffffffffffffffffff1673ffffffffffffffffffffffffffffffffffffffff1681526020019081526020016000208260800151604051611a9091906127ea565b9081526020016040518091039020541415611c85576000808473ffffffffffffffffffffffffffffffffffffffff1673ffffffffffffffffffffffffffffffffffffffff168152602001908152602001600020819080600181540180825580915050600190039060005260206000209060060201600090919091909150600082015181600001556020820151816001019080519060200190611b33929190611f99565b50604082015181600201556060820151816003019080519060200190611b5a929190611f99565b506080820151816004019080519060200190611b77929190611f99565b5060a0820151816005015550506000808473ffffffffffffffffffffffffffffffffffffffff1673ffffffffffffffffffffffffffffffffffffffff16815260200190815260200160002080549050600160008573ffffffffffffffffffffffffffffffffffffffff1673ffffffffffffffffffffffffffffffffffffffff1681526020019081526020016000208260800151604051611c1791906127ea565b9081526020016040518091039020819055507ff25c3e6d21e8019c81fff7c875b55f146ead7b5977146dad78cc842133d1cd1283826000015183602001518460400151856060015186608001518760a00151604051611c7c9796959493929190612818565b60405180910390a15b505050565b606060008060003373ffffffffffffffffffffffffffffffffffffffff1673ffffffffffffffffffffffffffffffffffffffff1681526020019081526020016000208054905011611d10576040517f08c379a0000000000000000000000000000000000000000000000000000000008152600401611d079061293e565b60405180910390fd5b6000803373ffffffffffffffffffffffffffffffffffffffff1673ffffffffffffffffffffffffffffffffffffffff168152602001908152602001600020805480602002602001604051908101604052809291908181526020016000905b82821015611f7457838290600052602060002090600602016040518060c001604052908160008201548152602001600182018054611dab90612c9f565b80601f0160208091040260200160405190810160405280929190818152602001828054611dd790612c9f565b8015611e245780601f10611df957610100808354040283529160200191611e24565b820191906000526020600020905b815481529060010190602001808311611e0757829003601f168201915b5050505050815260200160028201548152602001600382018054611e4790612c9f565b80601f0160208091040260200160405190810160405280929190818152602001828054611e7390612c9f565b8015611ec05780601f10611e9557610100808354040283529160200191611ec0565b820191906000526020600020905b815481529060010190602001808311611ea357829003601f168201915b50505050508152602001600482018054611ed990612c9f565b80601f0160208091040260200160405190810160405280929190818152602001828054611f0590612c9f565b8015611f525780601f10611f2757610100808354040283529160200191611f52565b820191906000526020600020905b815481529060010190602001808311611f3557829003601f168201915b5050505050815260200160058201548152505081526020019060010190611d6e565b50505050905090565b600081831015611f8f57829050611f93565b8190505b92915050565b828054611fa590612c9f565b90600052602060002090601f016020900481019282611fc7576000855561200e565b82601f10611fe057805160ff191683800117855561200e565b8280016001018555821561200e579182015b8281111561200d578251825591602001919060010190611ff2565b5b50905061201b9190612122565b5090565b6040518060c001604052806000815260200160608152602001600081526020016060815260200160608152602001600081525090565b82805461206190612c9f565b90600052602060002090601f01602090048101928261208357600085556120d1565b82601f1061209457805485556120d1565b828001600101855582156120d157600052602060002091601f016020900482015b828111156120d05782548255916001019190600101906120b5565b5b5090506120de9190612122565b5090565b5080546120ee90612c9f565b6000825580601f10612100575061211f565b601f01602090049060005260206000209081019061211e9190612122565b5b50565b5b8082111561213b576000816000905550600101612123565b5090565b600061215261214d84612b36565b612b11565b90508281526020810184848401111561216a57600080fd5b612175848285612c5d565b509392505050565b60008135905061218c81613070565b92915050565b600082601f8301126121a357600080fd5b81356121b384826020860161213f565b91505092915050565b6000813590506121cb81613087565b92915050565b600080604083850312156121e457600080fd5b60006121f28582860161217d565b9250506020612203858286016121bc565b9150509250929050565b6000806000806080858703121561222357600080fd5b600085013567ffffffffffffffff81111561223d57600080fd5b61224987828801612192565b945050602061225a878288016121bc565b935050604085013567ffffffffffffffff81111561227757600080fd5b61228387828801612192565b925050606085013567ffffffffffffffff8111156122a057600080fd5b6122ac87828801612192565b91505092959194509250565b6000602082840312156122ca57600080fd5b60006122d8848285016121bc565b91505092915050565b600080604083850312156122f457600080fd5b6000612302858286016121bc565b9250506020612313858286016121bc565b9150509250929050565b6000612329838361269e565b905092915050565b61233a81612c21565b82525050565b600061234b82612b8c565b6123558185612baf565b93508360208202850161236785612b67565b8060005b858110156123a35784840389528151612384858261231d565b945061238f83612ba2565b925060208a0199505060018101905061236b565b50829750879550505050505092915050565b60006123c082612b97565b6123ca8185612bc0565b93506123da818560208601612c6c565b6123e381612dd8565b840191505092915050565b60006123f982612b97565b6124038185612bd1565b9350612413818560208601612c6c565b61241c81612dd8565b840191505092915050565b600061243282612b97565b61243c8185612be2565b935061244c818560208601612c6c565b80840191505092915050565b6000815461246581612c9f565b61246f8186612be2565b9450600182166000811461248a576001811461249b576124ce565b60ff198316865281860193506124ce565b6124a485612b77565b60005b838110156124c6578154818901526001820191506020810190506124a7565b838801955050505b50505092915050565b60006124e4601483612bd1565b91506124ef82612de9565b602082019050919050565b6000612507600d83612bd1565b915061251282612e12565b602082019050919050565b600061252a600c83612bd1565b915061253582612e3b565b602082019050919050565b600061254d601483612bd1565b915061255882612e64565b602082019050919050565b6000612570600f83612bd1565b915061257b82612e8d565b602082019050919050565b6000612593601c83612bd1565b915061259e82612eb6565b602082019050919050565b60006125b6601b83612bd1565b91506125c182612edf565b602082019050919050565b60006125d9602983612bd1565b91506125e482612f08565b604082019050919050565b60006125fc603783612bd1565b915061260782612f57565b604082019050919050565b600061261f601983612bd1565b915061262a82612fa6565b602082019050919050565b6000612642601383612bd1565b915061264d82612fcf565b602082019050919050565b6000612665602483612bd1565b915061267082612ff8565b604082019050919050565b6000612688601483612bd1565b915061269382613047565b602082019050919050565b600060c0830160008301516126b660008601826127cc565b50602083015184820360208601526126ce82826123b5565b91505060408301516126e360408601826127cc565b50606083015184820360608601526126fb82826123b5565b9150506080830151848203608086015261271582826123b5565b91505060a083015161272a60a08601826127cc565b508091505092915050565b600060c08301600083015161274d60008601826127cc565b506020830151848203602086015261276582826123b5565b915050604083015161277a60408601826127cc565b506060830151848203606086015261279282826123b5565b915050608083015184820360808601526127ac82826123b5565b91505060a08301516127c160a08601826127cc565b508091505092915050565b6127d581612c53565b82525050565b6127e481612c53565b82525050565b60006127f68284612427565b915081905092915050565b600061280d8284612458565b915081905092915050565b600060e08201905061282d600083018a612331565b61283a60208301896127db565b818103604083015261284c81886123ee565b905061285b60608301876127db565b818103608083015261286d81866123ee565b905081810360a083015261288181856123ee565b905061289060c08301846127db565b98975050505050505050565b600060208201905081810360008301526128b68184612340565b905092915050565b600060208201905081810360008301526128d7816124d7565b9050919050565b600060208201905081810360008301526128f7816124fa565b9050919050565b600060208201905081810360008301526129178161251d565b9050919050565b6000602082019050818103600083015261293781612540565b9050919050565b6000602082019050818103600083015261295781612563565b9050919050565b6000602082019050818103600083015261297781612586565b9050919050565b60006020820190508181036000830152612997816125a9565b9050919050565b600060208201905081810360008301526129b7816125cc565b9050919050565b600060208201905081810360008301526129d7816125ef565b9050919050565b600060208201905081810360008301526129f781612612565b9050919050565b60006020820190508181036000830152612a1781612635565b9050919050565b60006020820190508181036000830152612a3781612658565b9050919050565b60006020820190508181036000830152612a578161267b565b9050919050565b60006020820190508181036000830152612a788184612735565b905092915050565b6000602082019050612a9560008301846127db565b92915050565b600060c082019050612ab060008301896127db565b8181036020830152612ac281886123ee565b9050612ad160408301876127db565b8181036060830152612ae381866123ee565b90508181036080830152612af781856123ee565b9050612b0660a08301846127db565b979650505050505050565b6000612b1b612b2c565b9050612b278282612cd1565b919050565b6000604051905090565b600067ffffffffffffffff821115612b5157612b50612da9565b5b612b5a82612dd8565b9050602081019050919050565b6000819050602082019050919050565b60008190508160005260206000209050919050565b600081519050919050565b600081519050919050565b6000602082019050919050565b600082825260208201905092915050565b600082825260208201905092915050565b600082825260208201905092915050565b600081905092915050565b6000612bf882612c53565b9150612c0383612c53565b925082821015612c1657612c15612d4b565b5b828203905092915050565b6000612c2c82612c33565b9050919050565b600073ffffffffffffffffffffffffffffffffffffffff82169050919050565b6000819050919050565b82818337600083830152505050565b60005b83811015612c8a578082015181840152602081019050612c6f565b83811115612c99576000848401525b50505050565b60006002820490506001821680612cb757607f821691505b60208210811415612ccb57612cca612d7a565b5b50919050565b612cda82612dd8565b810181811067ffffffffffffffff82111715612cf957612cf8612da9565b5b80604052505050565b6000612d0d82612c53565b91507fffffffffffffffffffffffffffffffffffffffffffffffffffffffffffffffff821415612d4057612d3f612d4b565b5b600182019050919050565b7f4e487b7100000000000000000000000000000000000000000000000000000000600052601160045260246000fd5b7f4e487b7100000000000000000000000000000000000000000000000000000000600052602260045260246000fd5b7f4e487b7100000000000000000000000000000000000000000000000000000000600052604160045260246000fd5b6000601f19601f8301169050919050565b7f4e616d652063616e6e6f7420626520656d707479000000000000000000000000600082015250565b7f4e756c6c20616464726573732100000000000000000000000000000000000000600082015250565b7f546f20796f757273656c66210000000000000000000000000000000000000000600082015250565b7f486173682063616e6e6f7420626520656d707479000000000000000000000000600082015250565b7f4e6f2066696c657320666f756e64210000000000000000000000000000000000600082015250565b7f53697a65206d757374206265206c657373207468616e20322a2a333000000000600082015250565b7f53697a65206d7573742062652067726561746572207468616e20300000000000600082015250565b7f4d696d6520747970652063616e6e6f74206265206c6f6e676572207468616e2060008201527f3531322062797465730000000000000000000000000000000000000000000000602082015250565b7f737461727420696e646578206d757374206265207374726963746c7920736d6160008201527f6c6c6572207468616e2074686520656e6420696e646578000000000000000000602082015250565b7f4d696d6520747970652063616e6e6f7420626520656d70747900000000000000600082015250565b7f496e646578206f7574206f6620626f756e647300000000000000000000000000600082015250565b7f4e616d652063616e6e6f74206265206c6f6e676572207468616e20353132206260008201527f7974657300000000000000000000000000000000000000000000000000000000602082015250565b7f496e646578206f7574206f6620626f756e647321000000000000000000000000600082015250565b61307981612c21565b811461308457600080fd5b50565b61309081612c53565b811461309b57600080fd5b5056fea2646970667358221220b6b2dd5e08ebd9434bb37f7c1b68e1050ca750b9a441f589224551cceae69b6b64736f6c63430008040033",
  "linkReferences": {},
  "deployedLinkReferences": {}
}