{
  "_format": "hh-sol-artifact-1",
  "contractName": "Storage",
  "sourceName": "contracts/storage.sol",
  "abi": [
    {
      "anonymous": false,
      "inputs": [
        {
          "indexed": false,
          "internalType": "string",
          "name": "name",
          "type": "string"
        },
        {
          "indexed": false,
          "internalType": "uint256",
          "name": "size",
          "type": "uint256"
        },
        {
          "indexed": false,
          "internalType": "string",
          "name": "mimeType",
          "type": "string"
        },
        {
          "indexed": false,
          "internalType": "string",
          "name": "hash",
          "type": "string"
        },
        {
          "indexed": false,
          "internalType": "uint256",
          "name": "uploadTime",
          "type": "uint256"
        }
      ],
      "name": "FileRemoved",
      "type": "event"
    },
    {
      "anonymous": false,
      "inputs": [
        {
          "indexed": false,
          "internalType": "address",
          "name": "to",
          "type": "address"
        },
        {
          "indexed": false,
          "internalType": "string",
          "name": "name",
          "type": "string"
        },
        {
          "indexed": false,
          "internalType": "uint256",
          "name": "size",
          "type": "uint256"
        },
        {
          "indexed": false,
          "internalType": "string",
          "name": "mimeType",
          "type": "string"
        },
        {
          "indexed": false,
          "internalType": "string",
          "name": "hash",
          "type": "string"
        },
        {
          "indexed": false,
          "internalType": "uint256",
          "name": "uploadTime",
          "type": "uint256"
        }
      ],
      "name": "FileShared",
      "type": "event"
    },
    {
      "anonymous": false,
      "inputs": [
        {
          "indexed": false,
          "internalType": "string",
          "name": "name",
          "type": "string"
        },
        {
          "indexed": false,
          "internalType": "uint256",
          "name": "size",
          "type": "uint256"
        },
        {
          "indexed": false,
          "internalType": "string",
          "name": "mimeType",
          "type": "string"
        },
        {
          "indexed": false,
          "internalType": "string",
          "name": "hash",
          "type": "string"
        },
        {
          "indexed": false,
          "internalType": "uint256",
          "name": "uploadTime",
          "type": "uint256"
        }
      ],
      "name": "FileStored",
      "type": "event"
    },
    {
      "inputs": [],
      "name": "getAllFiles",
      "outputs": [
        {
          "components": [
            {
              "internalType": "string",
              "name": "name",
              "type": "string"
            },
            {
              "internalType": "uint256",
              "name": "size",
              "type": "uint256"
            },
            {
              "internalType": "string",
              "name": "mimeType",
              "type": "string"
            },
            {
              "internalType": "string",
              "name": "hash",
              "type": "string"
            },
            {
              "internalType": "uint256",
              "name": "uploadTime",
              "type": "uint256"
            }
          ],
          "internalType": "struct Storage.File[]",
          "name": "",
          "type": "tuple[]"
        }
      ],
      "stateMutability": "view",
      "type": "function"
    },
    {
      "inputs": [],
      "name": "getFilesCount",
      "outputs": [
        {
          "internalType": "uint256",
          "name": "",
          "type": "uint256"
        }
      ],
      "stateMutability": "view",
      "type": "function"
    },
    {
      "inputs": [
        {
          "internalType": "uint256",
          "name": "_startIndex",
          "type": "uint256"
        },
        {
          "internalType": "uint256",
          "name": "_endIndex",
          "type": "uint256"
        }
      ],
      "name": "getRangeOfFiles",
      "outputs": [
        {
          "components": [
            {
              "internalType": "string",
              "name": "name",
              "type": "string"
            },
            {
              "internalType": "uint256",
              "name": "size",
              "type": "uint256"
            },
            {
              "internalType": "string",
              "name": "mimeType",
              "type": "string"
            },
            {
              "internalType": "string",
              "name": "hash",
              "type": "string"
            },
            {
              "internalType": "uint256",
              "name": "uploadTime",
              "type": "uint256"
            }
          ],
          "internalType": "struct Storage.File[]",
          "name": "",
          "type": "tuple[]"
        }
      ],
      "stateMutability": "view",
      "type": "function"
    },
    {
      "inputs": [
        {
          "internalType": "uint256",
          "name": "_index",
          "type": "uint256"
        }
      ],
      "name": "getSingleFile",
      "outputs": [
        {
          "components": [
            {
              "internalType": "string",
              "name": "name",
              "type": "string"
            },
            {
              "internalType": "uint256",
              "name": "size",
              "type": "uint256"
            },
            {
              "internalType": "string",
              "name": "mimeType",
              "type": "string"
            },
            {
              "internalType": "string",
              "name": "hash",
              "type": "string"
            },
            {
              "internalType": "uint256",
              "name": "uploadTime",
              "type": "uint256"
            }
          ],
          "internalType": "struct Storage.File",
          "name": "",
          "type": "tuple"
        }
      ],
      "stateMutability": "view",
      "type": "function"
    },
    {
      "inputs": [
        {
          "internalType": "uint256",
          "name": "_index",
          "type": "uint256"
        }
      ],
      "name": "removeFile",
      "outputs": [],
      "stateMutability": "nonpayable",
      "type": "function"
    },
    {
      "inputs": [
        {
          "internalType": "address",
          "name": "_to",
          "type": "address"
        },
        {
          "internalType": "uint256",
          "name": "_index",
          "type": "uint256"
        }
      ],
      "name": "shareFile",
      "outputs": [],
      "stateMutability": "nonpayable",
      "type": "function"
    },
    {
      "inputs": [
        {
          "internalType": "string",
          "name": "_name",
          "type": "string"
        },
        {
          "internalType": "uint256",
          "name": "_size",
          "type": "uint256"
        },
        {
          "internalType": "string",
          "name": "_mimeType",
          "type": "string"
        },
        {
          "internalType": "string",
          "name": "_hash",
          "type": "string"
        }
      ],
      "name": "storeFile",
      "outputs": [],
      "stateMutability": "nonpayable",
      "type": "function"
    }
  ],
  "bytecode": "0x608060405234801561001057600080fd5b50612f32806100206000396000f3fe608060405234801561001057600080fd5b506004361061007d5760003560e01c80639926b03f1161005b5780639926b03f146100fe578063a3322a121461011a578063c11126e514610138578063ff24b5d5146101545761007d565b80636d429aac14610082578063738203551461009e57806398abe804146100ce575b600080fd5b61009c600480360381019061009791906120ad565b610172565b005b6100b860048036038101906100b39190612158565b6105a0565b6040516100c59190612932565b60405180910390f35b6100e860048036038101906100e39190612181565b61088b565b6040516100f59190612708565b60405180910390f35b61011860048036038101906101139190612158565b610d84565b005b6101226114fa565b60405161012f9190612954565b60405180910390f35b610152600480360381019061014d9190612071565b611543565b005b61015c611b3b565b6040516101699190612708565b60405180910390f35b60008451116101b6576040517f08c379a00000000000000000000000000000000000000000000000000000000081526004016101ad90612792565b60405180910390fd5b610200845111156101fc576040517f08c379a00000000000000000000000000000000000000000000000000000000081526004016101f3906128f2565b60405180910390fd5b6000831161023f576040517f08c379a000000000000000000000000000000000000000000000000000000000815260040161023690612852565b60405180910390fd5b6340000000831115610286576040517f08c379a000000000000000000000000000000000000000000000000000000000815260040161027d90612832565b60405180910390fd5b60008251116102ca576040517f08c379a00000000000000000000000000000000000000000000000000000000081526004016102c1906128b2565b60405180910390fd5b61020082511115610310576040517f08c379a000000000000000000000000000000000000000000000000000000000815260040161030790612872565b60405180910390fd5b6000815111610354576040517f08c379a000000000000000000000000000000000000000000000000000000000815260040161034b906127f2565b60405180910390fd5b60006040518060a001604052808681526020018581526020018481526020018381526020014281525090506000600160003373ffffffffffffffffffffffffffffffffffffffff1673ffffffffffffffffffffffffffffffffffffffff168152602001908152602001600020836040516103ce9190612664565b9081526020016040518091039020541415610599576000803373ffffffffffffffffffffffffffffffffffffffff1673ffffffffffffffffffffffffffffffffffffffff1681526020019081526020016000208190806001815401808255809150506001900390600052602060002090600502016000909190919091506000820151816000019080519060200190610467929190611e40565b5060208201518160010155604082015181600201908051906020019061048e929190611e40565b5060608201518160030190805190602001906104ab929190611e40565b506080820151816004015550506000803373ffffffffffffffffffffffffffffffffffffffff1673ffffffffffffffffffffffffffffffffffffffff16815260200190815260200160002080549050600160003373ffffffffffffffffffffffffffffffffffffffff1673ffffffffffffffffffffffffffffffffffffffff168152602001908152602001600020836040516105479190612664565b9081526020016040518091039020819055507fbadc8bdf41de0b160087b2606a95454c625d9db94d24f511db596304dbed1f65858585854260405161059095949392919061272a565b60405180910390a15b5050505050565b6105a8611ec6565b6000803373ffffffffffffffffffffffffffffffffffffffff1673ffffffffffffffffffffffffffffffffffffffff16815260200190815260200160002080549050821061062b576040517f08c379a0000000000000000000000000000000000000000000000000000000008152600401610622906128d2565b60405180910390fd5b6000803373ffffffffffffffffffffffffffffffffffffffff1673ffffffffffffffffffffffffffffffffffffffff16815260200190815260200160002082815481106106a1577f4e487b7100000000000000000000000000000000000000000000000000000000600052603260045260246000fd5b90600052602060002090600502016040518060a00160405290816000820180546106ca90612afd565b80601f01602080910402602001604051908101604052809291908181526020018280546106f690612afd565b80156107435780601f1061071857610100808354040283529160200191610743565b820191906000526020600020905b81548152906001019060200180831161072657829003601f168201915b505050505081526020016001820154815260200160028201805461076690612afd565b80601f016020809104026020016040519081016040528092919081815260200182805461079290612afd565b80156107df5780601f106107b4576101008083540402835291602001916107df565b820191906000526020600020905b8154815290600101906020018083116107c257829003601f168201915b505050505081526020016003820180546107f890612afd565b80601f016020809104026020016040519081016040528092919081815260200182805461082490612afd565b80156108715780601f1061084657610100808354040283529160200191610871565b820191906000526020600020905b81548152906001019060200180831161085457829003601f168201915b505050505081526020016004820154815250509050919050565b606060008060003373ffffffffffffffffffffffffffffffffffffffff1673ffffffffffffffffffffffffffffffffffffffff1681526020019081526020016000208054905011610911576040517f08c379a000000000000000000000000000000000000000000000000000000000815260040161090890612812565b60405180910390fd5b6000803373ffffffffffffffffffffffffffffffffffffffff1673ffffffffffffffffffffffffffffffffffffffff168152602001908152602001600020805490508310610994576040517f08c379a000000000000000000000000000000000000000000000000000000000815260040161098b906128d2565b60405180910390fd5b8282116109d6576040517f08c379a00000000000000000000000000000000000000000000000000000000081526004016109cd90612892565b60405180910390fd5b610a21826000803373ffffffffffffffffffffffffffffffffffffffff1673ffffffffffffffffffffffffffffffffffffffff16815260200190815260200160002080549050611e24565b915060008383610a319190612a4b565b905060008167ffffffffffffffff811115610a75577f4e487b7100000000000000000000000000000000000000000000000000000000600052604160045260246000fd5b604051908082528060200260200182016040528015610aae57816020015b610a9b611ec6565b815260200190600190039081610a935790505b50905060008590505b84811015610d78576000803373ffffffffffffffffffffffffffffffffffffffff1673ffffffffffffffffffffffffffffffffffffffff1681526020019081526020016000208181548110610b35577f4e487b7100000000000000000000000000000000000000000000000000000000600052603260045260246000fd5b90600052602060002090600502016040518060a0016040529081600082018054610b5e90612afd565b80601f0160208091040260200160405190810160405280929190818152602001828054610b8a90612afd565b8015610bd75780601f10610bac57610100808354040283529160200191610bd7565b820191906000526020600020905b815481529060010190602001808311610bba57829003601f168201915b5050505050815260200160018201548152602001600282018054610bfa90612afd565b80601f0160208091040260200160405190810160405280929190818152602001828054610c2690612afd565b8015610c735780601f10610c4857610100808354040283529160200191610c73565b820191906000526020600020905b815481529060010190602001808311610c5657829003601f168201915b50505050508152602001600382018054610c8c90612afd565b80601f0160208091040260200160405190810160405280929190818152602001828054610cb890612afd565b8015610d055780601f10610cda57610100808354040283529160200191610d05565b820191906000526020600020905b815481529060010190602001808311610ce857829003601f168201915b50505050508152602001600482015481525050828783610d259190612a4b565b81518110610d5c577f4e487b7100000000000000000000000000000000000000000000000000000000600052603260045260246000fd5b602002602001018190525080610d7190612b60565b9050610ab7565b50809250505092915050565b6000803373ffffffffffffffffffffffffffffffffffffffff1673ffffffffffffffffffffffffffffffffffffffff168152602001908152602001600020805490508110610e07576040517f08c379a0000000000000000000000000000000000000000000000000000000008152600401610dfe90612912565b60405180910390fd5b60008060003373ffffffffffffffffffffffffffffffffffffffff1673ffffffffffffffffffffffffffffffffffffffff1681526020019081526020016000208281548110610e7f577f4e487b7100000000000000000000000000000000000000000000000000000000600052603260045260246000fd5b90600052602060002090600502016040518060a0016040529081600082018054610ea890612afd565b80601f0160208091040260200160405190810160405280929190818152602001828054610ed490612afd565b8015610f215780601f10610ef657610100808354040283529160200191610f21565b820191906000526020600020905b815481529060010190602001808311610f0457829003601f168201915b5050505050815260200160018201548152602001600282018054610f4490612afd565b80601f0160208091040260200160405190810160405280929190818152602001828054610f7090612afd565b8015610fbd5780601f10610f9257610100808354040283529160200191610fbd565b820191906000526020600020905b815481529060010190602001808311610fa057829003601f168201915b50505050508152602001600382018054610fd690612afd565b80601f016020809104026020016040519081016040528092919081815260200182805461100290612afd565b801561104f5780601f106110245761010080835404028352916020019161104f565b820191906000526020600020905b81548152906001019060200180831161103257829003601f168201915b5050505050815260200160048201548152505090506000803373ffffffffffffffffffffffffffffffffffffffff1673ffffffffffffffffffffffffffffffffffffffff16815260200190815260200160002060016000803373ffffffffffffffffffffffffffffffffffffffff1673ffffffffffffffffffffffffffffffffffffffff168152602001908152602001600020805490506110f09190612a4b565b81548110611127577f4e487b7100000000000000000000000000000000000000000000000000000000600052603260045260246000fd5b90600052602060002090600502016000803373ffffffffffffffffffffffffffffffffffffffff1673ffffffffffffffffffffffffffffffffffffffff16815260200190815260200160002083815481106111ab577f4e487b7100000000000000000000000000000000000000000000000000000000600052603260045260246000fd5b906000526020600020906005020160008201816000019080546111cd90612afd565b6111d8929190611ef5565b506001820154816001015560028201816002019080546111f790612afd565b611202929190611ef5565b50600382018160030190805461121790612afd565b611222929190611ef5565b50600482015481600401559050506000803373ffffffffffffffffffffffffffffffffffffffff1673ffffffffffffffffffffffffffffffffffffffff1681526020019081526020016000208054806112a4577f4e487b7100000000000000000000000000000000000000000000000000000000600052603160045260246000fd5b6001900381819060005260206000209060050201600080820160006112c99190611f82565b60018201600090556002820160006112e19190611f82565b6003820160006112f19190611f82565b600482016000905550509055600160003373ffffffffffffffffffffffffffffffffffffffff1673ffffffffffffffffffffffffffffffffffffffff168152602001908152602001600020816060015160405161134e9190612664565b908152602001604051809103902054600160003373ffffffffffffffffffffffffffffffffffffffff1673ffffffffffffffffffffffffffffffffffffffff1681526020019081526020016000206000803373ffffffffffffffffffffffffffffffffffffffff1673ffffffffffffffffffffffffffffffffffffffff1681526020019081526020016000208481548110611412577f4e487b7100000000000000000000000000000000000000000000000000000000600052603260045260246000fd5b9060005260206000209060050201600301604051611430919061267b565b9081526020016040518091039020819055506000600160003373ffffffffffffffffffffffffffffffffffffffff1673ffffffffffffffffffffffffffffffffffffffff16815260200190815260200160002082606001516040516114959190612664565b9081526020016040518091039020819055507fa5fe950bd3711204c4010981416615deae62deefb655669a2b082cb075edb4eb8160000151826020015183604001518460600151426040516114ee95949392919061272a565b60405180910390a15050565b60008060003373ffffffffffffffffffffffffffffffffffffffff1673ffffffffffffffffffffffffffffffffffffffff16815260200190815260200160002080549050905090565b6000803373ffffffffffffffffffffffffffffffffffffffff1673ffffffffffffffffffffffffffffffffffffffff1681526020019081526020016000208054905081106115c6576040517f08c379a00000000000000000000000000000000000000000000000000000000081526004016115bd90612912565b60405180910390fd5b3373ffffffffffffffffffffffffffffffffffffffff168273ffffffffffffffffffffffffffffffffffffffff161415611635576040517f08c379a000000000000000000000000000000000000000000000000000000000815260040161162c906127d2565b60405180910390fd5b600073ffffffffffffffffffffffffffffffffffffffff168273ffffffffffffffffffffffffffffffffffffffff1614156116a5576040517f08c379a000000000000000000000000000000000000000000000000000000000815260040161169c906127b2565b60405180910390fd5b60008060003373ffffffffffffffffffffffffffffffffffffffff1673ffffffffffffffffffffffffffffffffffffffff168152602001908152602001600020828154811061171d577f4e487b7100000000000000000000000000000000000000000000000000000000600052603260045260246000fd5b90600052602060002090600502016040518060a001604052908160008201805461174690612afd565b80601f016020809104026020016040519081016040528092919081815260200182805461177290612afd565b80156117bf5780601f10611794576101008083540402835291602001916117bf565b820191906000526020600020905b8154815290600101906020018083116117a257829003601f168201915b50505050508152602001600182015481526020016002820180546117e290612afd565b80601f016020809104026020016040519081016040528092919081815260200182805461180e90612afd565b801561185b5780601f106118305761010080835404028352916020019161185b565b820191906000526020600020905b81548152906001019060200180831161183e57829003601f168201915b5050505050815260200160038201805461187490612afd565b80601f01602080910402602001604051908101604052809291908181526020018280546118a090612afd565b80156118ed5780601f106118c2576101008083540402835291602001916118ed565b820191906000526020600020905b8154815290600101906020018083116118d057829003601f168201915b5050505050815260200160048201548152505090506000600160008573ffffffffffffffffffffffffffffffffffffffff1673ffffffffffffffffffffffffffffffffffffffff16815260200190815260200160002082606001516040516119559190612664565b9081526020016040518091039020541415611b36576000808473ffffffffffffffffffffffffffffffffffffffff1673ffffffffffffffffffffffffffffffffffffffff16815260200190815260200160002081908060018154018082558091505060019003906000526020600020906005020160009091909190915060008201518160000190805190602001906119ee929190611e40565b50602082015181600101556040820151816002019080519060200190611a15929190611e40565b506060820151816003019080519060200190611a32929190611e40565b506080820151816004015550506000808473ffffffffffffffffffffffffffffffffffffffff1673ffffffffffffffffffffffffffffffffffffffff16815260200190815260200160002080549050600160008573ffffffffffffffffffffffffffffffffffffffff1673ffffffffffffffffffffffffffffffffffffffff1681526020019081526020016000208260600151604051611ad29190612664565b9081526020016040518091039020819055507f5b098669427a36c497b9ca5a8269a84d3e1ce05f9e9ac537d4b1de8a6f06dbc383826000015183602001518460400151856060015142604051611b2d96959493929190612692565b60405180910390a15b505050565b606060008060003373ffffffffffffffffffffffffffffffffffffffff1673ffffffffffffffffffffffffffffffffffffffff1681526020019081526020016000208054905011611bc1576040517f08c379a0000000000000000000000000000000000000000000000000000000008152600401611bb890612812565b60405180910390fd5b6000803373ffffffffffffffffffffffffffffffffffffffff1673ffffffffffffffffffffffffffffffffffffffff168152602001908152602001600020805480602002602001604051908101604052809291908181526020016000905b82821015611e1b57838290600052602060002090600502016040518060a0016040529081600082018054611c5290612afd565b80601f0160208091040260200160405190810160405280929190818152602001828054611c7e90612afd565b8015611ccb5780601f10611ca057610100808354040283529160200191611ccb565b820191906000526020600020905b815481529060010190602001808311611cae57829003601f168201915b5050505050815260200160018201548152602001600282018054611cee90612afd565b80601f0160208091040260200160405190810160405280929190818152602001828054611d1a90612afd565b8015611d675780601f10611d3c57610100808354040283529160200191611d67565b820191906000526020600020905b815481529060010190602001808311611d4a57829003601f168201915b50505050508152602001600382018054611d8090612afd565b80601f0160208091040260200160405190810160405280929190818152602001828054611dac90612afd565b8015611df95780601f10611dce57610100808354040283529160200191611df9565b820191906000526020600020905b815481529060010190602001808311611ddc57829003601f168201915b5050505050815260200160048201548152505081526020019060010190611c1f565b50505050905090565b600081831015611e3657829050611e3a565b8190505b92915050565b828054611e4c90612afd565b90600052602060002090601f016020900481019282611e6e5760008555611eb5565b82601f10611e8757805160ff1916838001178555611eb5565b82800160010185558215611eb5579182015b82811115611eb4578251825591602001919060010190611e99565b5b509050611ec29190611fc2565b5090565b6040518060a0016040528060608152602001600081526020016060815260200160608152602001600081525090565b828054611f0190612afd565b90600052602060002090601f016020900481019282611f235760008555611f71565b82601f10611f345780548555611f71565b82800160010185558215611f7157600052602060002091601f016020900482015b82811115611f70578254825591600101919060010190611f55565b5b509050611f7e9190611fc2565b5090565b508054611f8e90612afd565b6000825580601f10611fa05750611fbf565b601f016020900490600052602060002090810190611fbe9190611fc2565b5b50565b5b80821115611fdb576000816000905550600101611fc3565b5090565b6000611ff2611fed84612994565b61296f565b90508281526020810184848401111561200a57600080fd5b612015848285612abb565b509392505050565b60008135905061202c81612ece565b92915050565b600082601f83011261204357600080fd5b8135612053848260208601611fdf565b91505092915050565b60008135905061206b81612ee5565b92915050565b6000806040838503121561208457600080fd5b60006120928582860161201d565b92505060206120a38582860161205c565b9150509250929050565b600080600080608085870312156120c357600080fd5b600085013567ffffffffffffffff8111156120dd57600080fd5b6120e987828801612032565b94505060206120fa8782880161205c565b935050604085013567ffffffffffffffff81111561211757600080fd5b61212387828801612032565b925050606085013567ffffffffffffffff81111561214057600080fd5b61214c87828801612032565b91505092959194509250565b60006020828403121561216a57600080fd5b60006121788482850161205c565b91505092915050565b6000806040838503121561219457600080fd5b60006121a28582860161205c565b92505060206121b38582860161205c565b9150509250929050565b60006121c9838361253e565b905092915050565b6121da81612a7f565b82525050565b60006121eb826129ea565b6121f58185612a0d565b935083602082028501612207856129c5565b8060005b85811015612243578484038952815161222485826121bd565b945061222f83612a00565b925060208a0199505060018101905061220b565b50829750879550505050505092915050565b6000612260826129f5565b61226a8185612a1e565b935061227a818560208601612aca565b61228381612c36565b840191505092915050565b6000612299826129f5565b6122a38185612a2f565b93506122b3818560208601612aca565b6122bc81612c36565b840191505092915050565b60006122d2826129f5565b6122dc8185612a40565b93506122ec818560208601612aca565b80840191505092915050565b6000815461230581612afd565b61230f8186612a40565b9450600182166000811461232a576001811461233b5761236e565b60ff1983168652818601935061236e565b612344856129d5565b60005b8381101561236657815481890152600182019150602081019050612347565b838801955050505b50505092915050565b6000612384601483612a2f565b915061238f82612c47565b602082019050919050565b60006123a7600d83612a2f565b91506123b282612c70565b602082019050919050565b60006123ca600c83612a2f565b91506123d582612c99565b602082019050919050565b60006123ed601483612a2f565b91506123f882612cc2565b602082019050919050565b6000612410600f83612a2f565b915061241b82612ceb565b602082019050919050565b6000612433601c83612a2f565b915061243e82612d14565b602082019050919050565b6000612456601b83612a2f565b915061246182612d3d565b602082019050919050565b6000612479602983612a2f565b915061248482612d66565b604082019050919050565b600061249c603783612a2f565b91506124a782612db5565b604082019050919050565b60006124bf601983612a2f565b91506124ca82612e04565b602082019050919050565b60006124e2601383612a2f565b91506124ed82612e2d565b602082019050919050565b6000612505602483612a2f565b915061251082612e56565b604082019050919050565b6000612528601483612a2f565b915061253382612ea5565b602082019050919050565b600060a083016000830151848203600086015261255b8282612255565b91505060208301516125706020860182612646565b50604083015184820360408601526125888282612255565b915050606083015184820360608601526125a28282612255565b91505060808301516125b76080860182612646565b508091505092915050565b600060a08301600083015184820360008601526125df8282612255565b91505060208301516125f46020860182612646565b506040830151848203604086015261260c8282612255565b915050606083015184820360608601526126268282612255565b915050608083015161263b6080860182612646565b508091505092915050565b61264f81612ab1565b82525050565b61265e81612ab1565b82525050565b600061267082846122c7565b915081905092915050565b600061268782846122f8565b915081905092915050565b600060c0820190506126a760008301896121d1565b81810360208301526126b9818861228e565b90506126c86040830187612655565b81810360608301526126da818661228e565b905081810360808301526126ee818561228e565b90506126fd60a0830184612655565b979650505050505050565b6000602082019050818103600083015261272281846121e0565b905092915050565b600060a0820190508181036000830152612744818861228e565b90506127536020830187612655565b8181036040830152612765818661228e565b90508181036060830152612779818561228e565b90506127886080830184612655565b9695505050505050565b600060208201905081810360008301526127ab81612377565b9050919050565b600060208201905081810360008301526127cb8161239a565b9050919050565b600060208201905081810360008301526127eb816123bd565b9050919050565b6000602082019050818103600083015261280b816123e0565b9050919050565b6000602082019050818103600083015261282b81612403565b9050919050565b6000602082019050818103600083015261284b81612426565b9050919050565b6000602082019050818103600083015261286b81612449565b9050919050565b6000602082019050818103600083015261288b8161246c565b9050919050565b600060208201905081810360008301526128ab8161248f565b9050919050565b600060208201905081810360008301526128cb816124b2565b9050919050565b600060208201905081810360008301526128eb816124d5565b9050919050565b6000602082019050818103600083015261290b816124f8565b9050919050565b6000602082019050818103600083015261292b8161251b565b9050919050565b6000602082019050818103600083015261294c81846125c2565b905092915050565b60006020820190506129696000830184612655565b92915050565b600061297961298a565b90506129858282612b2f565b919050565b6000604051905090565b600067ffffffffffffffff8211156129af576129ae612c07565b5b6129b882612c36565b9050602081019050919050565b6000819050602082019050919050565b60008190508160005260206000209050919050565b600081519050919050565b600081519050919050565b6000602082019050919050565b600082825260208201905092915050565b600082825260208201905092915050565b600082825260208201905092915050565b600081905092915050565b6000612a5682612ab1565b9150612a6183612ab1565b925082821015612a7457612a73612ba9565b5b828203905092915050565b6000612a8a82612a91565b9050919050565b600073ffffffffffffffffffffffffffffffffffffffff82169050919050565b6000819050919050565b82818337600083830152505050565b60005b83811015612ae8578082015181840152602081019050612acd565b83811115612af7576000848401525b50505050565b60006002820490506001821680612b1557607f821691505b60208210811415612b2957612b28612bd8565b5b50919050565b612b3882612c36565b810181811067ffffffffffffffff82111715612b5757612b56612c07565b5b80604052505050565b6000612b6b82612ab1565b91507fffffffffffffffffffffffffffffffffffffffffffffffffffffffffffffffff821415612b9e57612b9d612ba9565b5b600182019050919050565b7f4e487b7100000000000000000000000000000000000000000000000000000000600052601160045260246000fd5b7f4e487b7100000000000000000000000000000000000000000000000000000000600052602260045260246000fd5b7f4e487b7100000000000000000000000000000000000000000000000000000000600052604160045260246000fd5b6000601f19601f8301169050919050565b7f4e616d652063616e6e6f7420626520656d707479000000000000000000000000600082015250565b7f4e756c6c20616464726573732100000000000000000000000000000000000000600082015250565b7f546f20796f757273656c66210000000000000000000000000000000000000000600082015250565b7f486173682063616e6e6f7420626520656d707479000000000000000000000000600082015250565b7f4e6f2066696c657320666f756e64210000000000000000000000000000000000600082015250565b7f53697a65206d757374206265206c657373207468616e20322a2a333000000000600082015250565b7f53697a65206d7573742062652067726561746572207468616e20300000000000600082015250565b7f4d696d6520747970652063616e6e6f74206265206c6f6e676572207468616e2060008201527f3531322062797465730000000000000000000000000000000000000000000000602082015250565b7f737461727420696e646578206d757374206265207374726963746c7920736d6160008201527f6c6c6572207468616e2074686520656e6420696e646578000000000000000000602082015250565b7f4d696d6520747970652063616e6e6f7420626520656d70747900000000000000600082015250565b7f496e646578206f7574206f6620626f756e647300000000000000000000000000600082015250565b7f4e616d652063616e6e6f74206265206c6f6e676572207468616e20353132206260008201527f7974657300000000000000000000000000000000000000000000000000000000602082015250565b7f496e646578206f7574206f6620626f756e647321000000000000000000000000600082015250565b612ed781612a7f565b8114612ee257600080fd5b50565b612eee81612ab1565b8114612ef957600080fd5b5056fea2646970667358221220f0d6a84bc9f958a23440dc0b1156ad633dc70ce09d9b2c5997ead4dda7553c1964736f6c63430008040033",
  "linkReferences": {},
  "deployedLinkReferences": {}
}