{
  "_format": "hh-sol-artifact-1",
  "contractName": "Storage",
  "sourceName": "contracts/storage.sol",
  "abi": [
    {
      "anonymous": false,
      "inputs": [
        {
          "indexed": false,
          "internalType": "string",
          "name": "name",
          "type": "string"
        },
        {
          "indexed": false,
          "internalType": "uint256",
          "name": "size",
          "type": "uint256"
        },
        {
          "indexed": false,
          "internalType": "string",
          "name": "mimeType",
          "type": "string"
        },
        {
          "indexed": false,
          "internalType": "string",
          "name": "hash",
          "type": "string"
        },
        {
          "indexed": false,
          "internalType": "uint256",
          "name": "uploadTime",
          "type": "uint256"
        }
      ],
      "name": "FileStored",
      "type": "event"
    },
    {
      "inputs": [],
      "name": "getAllFiles",
      "outputs": [
        {
          "components": [
            {
              "internalType": "string",
              "name": "name",
              "type": "string"
            },
            {
              "internalType": "uint256",
              "name": "size",
              "type": "uint256"
            },
            {
              "internalType": "string",
              "name": "mimeType",
              "type": "string"
            },
            {
              "internalType": "string",
              "name": "hash",
              "type": "string"
            },
            {
              "internalType": "uint256",
              "name": "uploadTime",
              "type": "uint256"
            }
          ],
          "internalType": "struct Storage.File[]",
          "name": "",
          "type": "tuple[]"
        }
      ],
      "stateMutability": "view",
      "type": "function"
    },
    {
      "inputs": [
        {
          "internalType": "uint256",
          "name": "_index",
          "type": "uint256"
        }
      ],
      "name": "getFile",
      "outputs": [
        {
          "components": [
            {
              "internalType": "string",
              "name": "name",
              "type": "string"
            },
            {
              "internalType": "uint256",
              "name": "size",
              "type": "uint256"
            },
            {
              "internalType": "string",
              "name": "mimeType",
              "type": "string"
            },
            {
              "internalType": "string",
              "name": "hash",
              "type": "string"
            },
            {
              "internalType": "uint256",
              "name": "uploadTime",
              "type": "uint256"
            }
          ],
          "internalType": "struct Storage.File",
          "name": "",
          "type": "tuple"
        }
      ],
      "stateMutability": "view",
      "type": "function"
    },
    {
      "inputs": [],
      "name": "getFilesCount",
      "outputs": [
        {
          "internalType": "uint256",
          "name": "",
          "type": "uint256"
        }
      ],
      "stateMutability": "view",
      "type": "function"
    },
    {
      "inputs": [
        {
          "internalType": "address",
          "name": "_to",
          "type": "address"
        },
        {
          "internalType": "uint256",
          "name": "_index",
          "type": "uint256"
        }
      ],
      "name": "shareFile",
      "outputs": [
        {
          "internalType": "bool",
          "name": "",
          "type": "bool"
        }
      ],
      "stateMutability": "nonpayable",
      "type": "function"
    },
    {
      "inputs": [
        {
          "internalType": "string",
          "name": "_name",
          "type": "string"
        },
        {
          "internalType": "uint256",
          "name": "_size",
          "type": "uint256"
        },
        {
          "internalType": "string",
          "name": "_mimeType",
          "type": "string"
        },
        {
          "internalType": "string",
          "name": "_hash",
          "type": "string"
        }
      ],
      "name": "storeFile",
      "outputs": [
        {
          "internalType": "bool",
          "name": "",
          "type": "bool"
        }
      ],
      "stateMutability": "nonpayable",
      "type": "function"
    }
  ],
  "bytecode": "0x608060405234801561001057600080fd5b50611bfc806100206000396000f3fe608060405234801561001057600080fd5b50600436106100575760003560e01c80632bfda3131461005c5780636d429aac1461008c578063a3322a12146100bc578063c11126e5146100da578063ff24b5d51461010a575b600080fd5b61007660048036038101906100719190611253565b610128565b60405161008391906117ac565b60405180910390f35b6100a660048036038101906100a191906111a8565b610497565b6040516100b39190611609565b60405180910390f35b6100c4610763565b6040516100d191906117ce565b60405180910390f35b6100f460048036038101906100ef919061116c565b6107ac565b6040516101019190611609565b60405180910390f35b610112610d1f565b60405161011f91906115e7565b60405180910390f35b610130611008565b6000803373ffffffffffffffffffffffffffffffffffffffff1673ffffffffffffffffffffffffffffffffffffffff1681526020019081526020016000208054905082106101b3576040517f08c379a00000000000000000000000000000000000000000000000000000000081526004016101aa9061178c565b60405180910390fd5b60008060003373ffffffffffffffffffffffffffffffffffffffff1673ffffffffffffffffffffffffffffffffffffffff1681526020019081526020016000208054905011610237576040517f08c379a000000000000000000000000000000000000000000000000000000000815260040161022e9061170c565b60405180910390fd5b6000803373ffffffffffffffffffffffffffffffffffffffff1673ffffffffffffffffffffffffffffffffffffffff16815260200190815260200160002082815481106102ad577f4e487b7100000000000000000000000000000000000000000000000000000000600052603260045260246000fd5b90600052602060002090600502016040518060a00160405290816000820180546102d69061192f565b80601f01602080910402602001604051908101604052809291908181526020018280546103029061192f565b801561034f5780601f106103245761010080835404028352916020019161034f565b820191906000526020600020905b81548152906001019060200180831161033257829003601f168201915b50505050508152602001600182015481526020016002820180546103729061192f565b80601f016020809104026020016040519081016040528092919081815260200182805461039e9061192f565b80156103eb5780601f106103c0576101008083540402835291602001916103eb565b820191906000526020600020905b8154815290600101906020018083116103ce57829003601f168201915b505050505081526020016003820180546104049061192f565b80601f01602080910402602001604051908101604052809291908181526020018280546104309061192f565b801561047d5780601f106104525761010080835404028352916020019161047d565b820191906000526020600020905b81548152906001019060200180831161046057829003601f168201915b505050505081526020016004820154815250509050919050565b6000808551116104dc576040517f08c379a00000000000000000000000000000000000000000000000000000000081526004016104d39061168c565b60405180910390fd5b6000841161051f576040517f08c379a00000000000000000000000000000000000000000000000000000000081526004016105169061174c565b60405180910390fd5b6000835111610563576040517f08c379a000000000000000000000000000000000000000000000000000000000815260040161055a9061176c565b60405180910390fd5b60008251116105a7576040517f08c379a000000000000000000000000000000000000000000000000000000000815260040161059e906116ec565b60405180910390fd5b600073ffffffffffffffffffffffffffffffffffffffff163373ffffffffffffffffffffffffffffffffffffffff161415610617576040517f08c379a000000000000000000000000000000000000000000000000000000000815260040161060e9061172c565b60405180910390fd5b60006040518060a001604052808781526020018681526020018581526020018481526020014281525090506000803373ffffffffffffffffffffffffffffffffffffffff1673ffffffffffffffffffffffffffffffffffffffff16815260200190815260200160002081908060018154018082558091505060019003906000526020600020906005020160009091909190915060008201518160000190805190602001906106c6929190611037565b506020820151816001015560408201518160020190805190602001906106ed929190611037565b50606082015181600301908051906020019061070a929190611037565b506080820151816004015550507fbadc8bdf41de0b160087b2606a95454c625d9db94d24f511db596304dbed1f65868686864260405161074e959493929190611624565b60405180910390a16001915050949350505050565b60008060003373ffffffffffffffffffffffffffffffffffffffff1673ffffffffffffffffffffffffffffffffffffffff16815260200190815260200160002080549050905090565b6000806000803373ffffffffffffffffffffffffffffffffffffffff1673ffffffffffffffffffffffffffffffffffffffff1681526020019081526020016000208054905011610831576040517f08c379a00000000000000000000000000000000000000000000000000000000081526004016108289061170c565b60405180910390fd5b3373ffffffffffffffffffffffffffffffffffffffff168373ffffffffffffffffffffffffffffffffffffffff1614156108a0576040517f08c379a0000000000000000000000000000000000000000000000000000000008152600401610897906116cc565b60405180910390fd5b600073ffffffffffffffffffffffffffffffffffffffff168373ffffffffffffffffffffffffffffffffffffffff161415610910576040517f08c379a0000000000000000000000000000000000000000000000000000000008152600401610907906116ac565b60405180910390fd5b6000803373ffffffffffffffffffffffffffffffffffffffff1673ffffffffffffffffffffffffffffffffffffffff168152602001908152602001600020805490508210610993576040517f08c379a000000000000000000000000000000000000000000000000000000000815260040161098a9061178c565b60405180910390fd5b60008060003373ffffffffffffffffffffffffffffffffffffffff1673ffffffffffffffffffffffffffffffffffffffff1681526020019081526020016000208381548110610a0b577f4e487b7100000000000000000000000000000000000000000000000000000000600052603260045260246000fd5b90600052602060002090600502016040518060a0016040529081600082018054610a349061192f565b80601f0160208091040260200160405190810160405280929190818152602001828054610a609061192f565b8015610aad5780601f10610a8257610100808354040283529160200191610aad565b820191906000526020600020905b815481529060010190602001808311610a9057829003601f168201915b5050505050815260200160018201548152602001600282018054610ad09061192f565b80601f0160208091040260200160405190810160405280929190818152602001828054610afc9061192f565b8015610b495780601f10610b1e57610100808354040283529160200191610b49565b820191906000526020600020905b815481529060010190602001808311610b2c57829003601f168201915b50505050508152602001600382018054610b629061192f565b80601f0160208091040260200160405190810160405280929190818152602001828054610b8e9061192f565b8015610bdb5780601f10610bb057610100808354040283529160200191610bdb565b820191906000526020600020905b815481529060010190602001808311610bbe57829003601f168201915b5050505050815260200160048201548152505090506000808573ffffffffffffffffffffffffffffffffffffffff1673ffffffffffffffffffffffffffffffffffffffff1681526020019081526020016000208190806001815401808255809150506001900390600052602060002090600502016000909190919091506000820151816000019080519060200190610c74929190611037565b50602082015181600101556040820151816002019080519060200190610c9b929190611037565b506060820151816003019080519060200190610cb8929190611037565b506080820151816004015550507fbadc8bdf41de0b160087b2606a95454c625d9db94d24f511db596304dbed1f65816000015182602001518360400151846060015142604051610d0c959493929190611624565b60405180910390a1600191505092915050565b606060008060003373ffffffffffffffffffffffffffffffffffffffff1673ffffffffffffffffffffffffffffffffffffffff1681526020019081526020016000208054905011610da5576040517f08c379a0000000000000000000000000000000000000000000000000000000008152600401610d9c9061170c565b60405180910390fd5b6000803373ffffffffffffffffffffffffffffffffffffffff1673ffffffffffffffffffffffffffffffffffffffff168152602001908152602001600020805480602002602001604051908101604052809291908181526020016000905b82821015610fff57838290600052602060002090600502016040518060a0016040529081600082018054610e369061192f565b80601f0160208091040260200160405190810160405280929190818152602001828054610e629061192f565b8015610eaf5780601f10610e8457610100808354040283529160200191610eaf565b820191906000526020600020905b815481529060010190602001808311610e9257829003601f168201915b5050505050815260200160018201548152602001600282018054610ed29061192f565b80601f0160208091040260200160405190810160405280929190818152602001828054610efe9061192f565b8015610f4b5780601f10610f2057610100808354040283529160200191610f4b565b820191906000526020600020905b815481529060010190602001808311610f2e57829003601f168201915b50505050508152602001600382018054610f649061192f565b80601f0160208091040260200160405190810160405280929190818152602001828054610f909061192f565b8015610fdd5780601f10610fb257610100808354040283529160200191610fdd565b820191906000526020600020905b815481529060010190602001808311610fc057829003601f168201915b5050505050815260200160048201548152505081526020019060010190610e03565b50505050905090565b6040518060a0016040528060608152602001600081526020016060815260200160608152602001600081525090565b8280546110439061192f565b90600052602060002090601f01602090048101928261106557600085556110ac565b82601f1061107e57805160ff19168380011785556110ac565b828001600101855582156110ac579182015b828111156110ab578251825591602001919060010190611090565b5b5090506110b991906110bd565b5090565b5b808211156110d65760008160009055506001016110be565b5090565b60006110ed6110e88461180e565b6117e9565b90508281526020810184848401111561110557600080fd5b6111108482856118ed565b509392505050565b60008135905061112781611b98565b92915050565b600082601f83011261113e57600080fd5b813561114e8482602086016110da565b91505092915050565b60008135905061116681611baf565b92915050565b6000806040838503121561117f57600080fd5b600061118d85828601611118565b925050602061119e85828601611157565b9150509250929050565b600080600080608085870312156111be57600080fd5b600085013567ffffffffffffffff8111156111d857600080fd5b6111e48782880161112d565b94505060206111f587828801611157565b935050604085013567ffffffffffffffff81111561121257600080fd5b61121e8782880161112d565b925050606085013567ffffffffffffffff81111561123b57600080fd5b6112478782880161112d565b91505092959194509250565b60006020828403121561126557600080fd5b600061127384828501611157565b91505092915050565b600061128883836114c1565b905092915050565b600061129b8261184f565b6112a58185611872565b9350836020820285016112b78561183f565b8060005b858110156112f357848403895281516112d4858261127c565b94506112df83611865565b925060208a019950506001810190506112bb565b50829750879550505050505092915050565b61130e816118b7565b82525050565b600061131f8261185a565b6113298185611883565b93506113398185602086016118fc565b611342816119f0565b840191505092915050565b60006113588261185a565b6113628185611894565b93506113728185602086016118fc565b61137b816119f0565b840191505092915050565b6000611393601483611894565b915061139e82611a01565b602082019050919050565b60006113b6602383611894565b91506113c182611a2a565b604082019050919050565b60006113d9601b83611894565b91506113e482611a79565b602082019050919050565b60006113fc601483611894565b915061140782611aa2565b602082019050919050565b600061141f600f83611894565b915061142a82611acb565b602082019050919050565b6000611442601483611894565b915061144d82611af4565b602082019050919050565b6000611465601b83611894565b915061147082611b1d565b602082019050919050565b6000611488601983611894565b915061149382611b46565b602082019050919050565b60006114ab601483611894565b91506114b682611b6f565b602082019050919050565b600060a08301600083015184820360008601526114de8282611314565b91505060208301516114f360208601826115c9565b506040830151848203604086015261150b8282611314565b915050606083015184820360608601526115258282611314565b915050608083015161153a60808601826115c9565b508091505092915050565b600060a08301600083015184820360008601526115628282611314565b915050602083015161157760208601826115c9565b506040830151848203604086015261158f8282611314565b915050606083015184820360608601526115a98282611314565b91505060808301516115be60808601826115c9565b508091505092915050565b6115d2816118e3565b82525050565b6115e1816118e3565b82525050565b600060208201905081810360008301526116018184611290565b905092915050565b600060208201905061161e6000830184611305565b92915050565b600060a082019050818103600083015261163e818861134d565b905061164d60208301876115d8565b818103604083015261165f818661134d565b90508181036060830152611673818561134d565b905061168260808301846115d8565b9695505050505050565b600060208201905081810360008301526116a581611386565b9050919050565b600060208201905081810360008301526116c5816113a9565b9050919050565b600060208201905081810360008301526116e5816113cc565b9050919050565b60006020820190508181036000830152611705816113ef565b9050919050565b6000602082019050818103600083015261172581611412565b9050919050565b6000602082019050818103600083015261174581611435565b9050919050565b6000602082019050818103600083015261176581611458565b9050919050565b600060208201905081810360008301526117858161147b565b9050919050565b600060208201905081810360008301526117a58161149e565b9050919050565b600060208201905081810360008301526117c68184611545565b905092915050565b60006020820190506117e360008301846115d8565b92915050565b60006117f3611804565b90506117ff8282611961565b919050565b6000604051905090565b600067ffffffffffffffff821115611829576118286119c1565b5b611832826119f0565b9050602081019050919050565b6000819050602082019050919050565b600081519050919050565b600081519050919050565b6000602082019050919050565b600082825260208201905092915050565b600082825260208201905092915050565b600082825260208201905092915050565b60006118b0826118c3565b9050919050565b60008115159050919050565b600073ffffffffffffffffffffffffffffffffffffffff82169050919050565b6000819050919050565b82818337600083830152505050565b60005b8381101561191a5780820151818401526020810190506118ff565b83811115611929576000848401525b50505050565b6000600282049050600182168061194757607f821691505b6020821081141561195b5761195a611992565b5b50919050565b61196a826119f0565b810181811067ffffffffffffffff82111715611989576119886119c1565b5b80604052505050565b7f4e487b7100000000000000000000000000000000000000000000000000000000600052602260045260246000fd5b7f4e487b7100000000000000000000000000000000000000000000000000000000600052604160045260246000fd5b6000601f19601f8301169050919050565b7f4e616d652063616e6e6f7420626520656d707479000000000000000000000000600082015250565b7f43616e6e6f74207368617265207769746820746865206e756c6c20616464726560008201527f7373210000000000000000000000000000000000000000000000000000000000602082015250565b7f43616e6e6f74207368617265207769746820796f757273656c66210000000000600082015250565b7f486173682063616e6e6f7420626520656d707479000000000000000000000000600082015250565b7f4e6f2066696c657320666f756e64210000000000000000000000000000000000600082015250565b7f53656e6465722063616e6e6f7420626520307830000000000000000000000000600082015250565b7f53697a65206d7573742062652067726561746572207468616e20300000000000600082015250565b7f4d696d6520747970652063616e6e6f7420626520656d70747900000000000000600082015250565b7f496e646578206f7574206f6620626f756e647321000000000000000000000000600082015250565b611ba1816118a5565b8114611bac57600080fd5b50565b611bb8816118e3565b8114611bc357600080fd5b5056fea264697066735822122087300a1ee280c17f1f2f266262ba3997558af365aa0f57d9024ff91e4ab2cb4b64736f6c63430008040033",
  "linkReferences": {},
  "deployedLinkReferences": {}
}