{
  "_format": "hh-sol-artifact-1",
  "contractName": "Storage",
  "sourceName": "contracts/storage.sol",
  "abi": [
    {
      "anonymous": false,
      "inputs": [
        {
          "indexed": false,
          "internalType": "string",
          "name": "name",
          "type": "string"
        },
        {
          "indexed": false,
          "internalType": "uint256",
          "name": "size",
          "type": "uint256"
        },
        {
          "indexed": false,
          "internalType": "string",
          "name": "mimeType",
          "type": "string"
        },
        {
          "indexed": false,
          "internalType": "string",
          "name": "hash",
          "type": "string"
        },
        {
          "indexed": false,
          "internalType": "uint256",
          "name": "uploadTime",
          "type": "uint256"
        }
      ],
      "name": "FileRemoved",
      "type": "event"
    },
    {
      "anonymous": false,
      "inputs": [
        {
          "indexed": false,
          "internalType": "address",
          "name": "to",
          "type": "address"
        },
        {
          "indexed": false,
          "internalType": "string",
          "name": "name",
          "type": "string"
        },
        {
          "indexed": false,
          "internalType": "uint256",
          "name": "size",
          "type": "uint256"
        },
        {
          "indexed": false,
          "internalType": "string",
          "name": "mimeType",
          "type": "string"
        },
        {
          "indexed": false,
          "internalType": "string",
          "name": "hash",
          "type": "string"
        },
        {
          "indexed": false,
          "internalType": "uint256",
          "name": "uploadTime",
          "type": "uint256"
        }
      ],
      "name": "FileShared",
      "type": "event"
    },
    {
      "anonymous": false,
      "inputs": [
        {
          "indexed": false,
          "internalType": "string",
          "name": "name",
          "type": "string"
        },
        {
          "indexed": false,
          "internalType": "uint256",
          "name": "size",
          "type": "uint256"
        },
        {
          "indexed": false,
          "internalType": "string",
          "name": "mimeType",
          "type": "string"
        },
        {
          "indexed": false,
          "internalType": "string",
          "name": "hash",
          "type": "string"
        },
        {
          "indexed": false,
          "internalType": "uint256",
          "name": "uploadTime",
          "type": "uint256"
        }
      ],
      "name": "FileStored",
      "type": "event"
    },
    {
      "inputs": [
        {
          "internalType": "uint256",
          "name": "_index",
          "type": "uint256"
        }
      ],
      "name": "getFile",
      "outputs": [
        {
          "components": [
            {
              "internalType": "string",
              "name": "name",
              "type": "string"
            },
            {
              "internalType": "uint256",
              "name": "size",
              "type": "uint256"
            },
            {
              "internalType": "string",
              "name": "mimeType",
              "type": "string"
            },
            {
              "internalType": "string",
              "name": "hash",
              "type": "string"
            },
            {
              "internalType": "uint256",
              "name": "uploadTime",
              "type": "uint256"
            }
          ],
          "internalType": "struct Storage.File",
          "name": "",
          "type": "tuple"
        }
      ],
      "stateMutability": "view",
      "type": "function"
    },
    {
      "inputs": [],
      "name": "getFiles",
      "outputs": [
        {
          "components": [
            {
              "internalType": "string",
              "name": "name",
              "type": "string"
            },
            {
              "internalType": "uint256",
              "name": "size",
              "type": "uint256"
            },
            {
              "internalType": "string",
              "name": "mimeType",
              "type": "string"
            },
            {
              "internalType": "string",
              "name": "hash",
              "type": "string"
            },
            {
              "internalType": "uint256",
              "name": "uploadTime",
              "type": "uint256"
            }
          ],
          "internalType": "struct Storage.File[]",
          "name": "",
          "type": "tuple[]"
        }
      ],
      "stateMutability": "view",
      "type": "function"
    },
    {
      "inputs": [],
      "name": "getFilesLength",
      "outputs": [
        {
          "internalType": "uint256",
          "name": "",
          "type": "uint256"
        }
      ],
      "stateMutability": "view",
      "type": "function"
    },
    {
      "inputs": [
        {
          "internalType": "uint256",
          "name": "_index",
          "type": "uint256"
        }
      ],
      "name": "removeFile",
      "outputs": [
        {
          "internalType": "bool",
          "name": "",
          "type": "bool"
        }
      ],
      "stateMutability": "nonpayable",
      "type": "function"
    },
    {
      "inputs": [
        {
          "internalType": "address",
          "name": "_to",
          "type": "address"
        },
        {
          "internalType": "uint256",
          "name": "_index",
          "type": "uint256"
        }
      ],
      "name": "shareFile",
      "outputs": [
        {
          "internalType": "bool",
          "name": "",
          "type": "bool"
        }
      ],
      "stateMutability": "nonpayable",
      "type": "function"
    },
    {
      "inputs": [
        {
          "internalType": "string",
          "name": "_name",
          "type": "string"
        },
        {
          "internalType": "uint256",
          "name": "_size",
          "type": "uint256"
        },
        {
          "internalType": "string",
          "name": "_mimeType",
          "type": "string"
        },
        {
          "internalType": "string",
          "name": "_hash",
          "type": "string"
        }
      ],
      "name": "storeFile",
      "outputs": [
        {
          "internalType": "bool",
          "name": "",
          "type": "bool"
        }
      ],
      "stateMutability": "nonpayable",
      "type": "function"
    }
  ],
  "bytecode": "0x608060405234801561001057600080fd5b506125d2806100206000396000f3fe608060405234801561001057600080fd5b50600436106100625760003560e01c80632bfda313146100675780632da96d73146100975780635956c40b146100b55780636d429aac146100d35780639926b03f14610103578063c11126e514610133575b600080fd5b610081600480360381019061007c919061192e565b610163565b60405161008e919061201d565b60405180910390f35b61009f61044e565b6040516100ac9190611df8565b60405180910390f35b6100bd610737565b6040516100ca919061203f565b60405180910390f35b6100ed60048036038101906100e89190611883565b610780565b6040516100fa9190611e1a565b60405180910390f35b61011d6004803603810190610118919061192e565b610b50565b60405161012a9190611e1a565b60405180910390f35b61014d60048036038101906101489190611847565b611124565b60405161015a9190611e1a565b60405180910390f35b61016b611616565b6000803373ffffffffffffffffffffffffffffffffffffffff1673ffffffffffffffffffffffffffffffffffffffff1681526020019081526020016000208054905082106101ee576040517f08c379a00000000000000000000000000000000000000000000000000000000081526004016101e590611fbd565b60405180910390fd5b6000803373ffffffffffffffffffffffffffffffffffffffff1673ffffffffffffffffffffffffffffffffffffffff1681526020019081526020016000208281548110610264577f4e487b7100000000000000000000000000000000000000000000000000000000600052603260045260246000fd5b90600052602060002090600502016040518060a001604052908160008201805461028d90612235565b80601f01602080910402602001604051908101604052809291908181526020018280546102b990612235565b80156103065780601f106102db57610100808354040283529160200191610306565b820191906000526020600020905b8154815290600101906020018083116102e957829003601f168201915b505050505081526020016001820154815260200160028201805461032990612235565b80601f016020809104026020016040519081016040528092919081815260200182805461035590612235565b80156103a25780601f10610377576101008083540402835291602001916103a2565b820191906000526020600020905b81548152906001019060200180831161038557829003601f168201915b505050505081526020016003820180546103bb90612235565b80601f01602080910402602001604051908101604052809291908181526020018280546103e790612235565b80156104345780601f1061040957610100808354040283529160200191610434565b820191906000526020600020905b81548152906001019060200180831161041757829003601f168201915b505050505081526020016004820154815250509050919050565b606060008060003373ffffffffffffffffffffffffffffffffffffffff1673ffffffffffffffffffffffffffffffffffffffff16815260200190815260200160002080549050116104d4576040517f08c379a00000000000000000000000000000000000000000000000000000000081526004016104cb90611f3d565b60405180910390fd5b6000803373ffffffffffffffffffffffffffffffffffffffff1673ffffffffffffffffffffffffffffffffffffffff168152602001908152602001600020805480602002602001604051908101604052809291908181526020016000905b8282101561072e57838290600052602060002090600502016040518060a001604052908160008201805461056590612235565b80601f016020809104026020016040519081016040528092919081815260200182805461059190612235565b80156105de5780601f106105b3576101008083540402835291602001916105de565b820191906000526020600020905b8154815290600101906020018083116105c157829003601f168201915b505050505081526020016001820154815260200160028201805461060190612235565b80601f016020809104026020016040519081016040528092919081815260200182805461062d90612235565b801561067a5780601f1061064f5761010080835404028352916020019161067a565b820191906000526020600020905b81548152906001019060200180831161065d57829003601f168201915b5050505050815260200160038201805461069390612235565b80601f01602080910402602001604051908101604052809291908181526020018280546106bf90612235565b801561070c5780601f106106e15761010080835404028352916020019161070c565b820191906000526020600020905b8154815290600101906020018083116106ef57829003601f168201915b5050505050815260200160048201548152505081526020019060010190610532565b50505050905090565b60008060003373ffffffffffffffffffffffffffffffffffffffff1673ffffffffffffffffffffffffffffffffffffffff16815260200190815260200160002080549050905090565b6000808551116107c5576040517f08c379a00000000000000000000000000000000000000000000000000000000081526004016107bc90611e9d565b60405180910390fd5b6102008551111561080b576040517f08c379a000000000000000000000000000000000000000000000000000000000815260040161080290611fdd565b60405180910390fd5b6000841161084e576040517f08c379a000000000000000000000000000000000000000000000000000000000815260040161084590611f7d565b60405180910390fd5b6340000000841115610895576040517f08c379a000000000000000000000000000000000000000000000000000000000815260040161088c90611f5d565b60405180910390fd5b60008351116108d9576040517f08c379a00000000000000000000000000000000000000000000000000000000081526004016108d090611f9d565b60405180910390fd5b60808351111561091e576040517f08c379a000000000000000000000000000000000000000000000000000000000815260040161091590611f1d565b60405180910390fd5b6000825111610962576040517f08c379a000000000000000000000000000000000000000000000000000000000815260040161095990611efd565b60405180910390fd5b60006040518060a00160405280878152602001868152602001858152602001848152602001428152509050600060018460405161099f9190611d6b565b9081526020016040518091039020541415610b425760016000803373ffffffffffffffffffffffffffffffffffffffff1673ffffffffffffffffffffffffffffffffffffffff16815260200190815260200160002080549050610a029190612121565b600184604051610a129190611d6b565b9081526020016040518091039020819055506000803373ffffffffffffffffffffffffffffffffffffffff1673ffffffffffffffffffffffffffffffffffffffff1681526020019081526020016000208190806001815401808255809150506001900390600052602060002090600502016000909190919091506000820151816000019080519060200190610aa8929190611645565b50602082015181600101556040820151816002019080519060200190610acf929190611645565b506060820151816003019080519060200190610aec929190611645565b506080820151816004015550507fbadc8bdf41de0b160087b2606a95454c625d9db94d24f511db596304dbed1f658686868642604051610b30959493929190611e35565b60405180910390a16001915050610b48565b60009150505b949350505050565b60008060003373ffffffffffffffffffffffffffffffffffffffff1673ffffffffffffffffffffffffffffffffffffffff168152602001908152602001600020805490508210610bd5576040517f08c379a0000000000000000000000000000000000000000000000000000000008152600401610bcc90611ffd565b60405180910390fd5b60008060003373ffffffffffffffffffffffffffffffffffffffff1673ffffffffffffffffffffffffffffffffffffffff1681526020019081526020016000208381548110610c4d577f4e487b7100000000000000000000000000000000000000000000000000000000600052603260045260246000fd5b90600052602060002090600502016040518060a0016040529081600082018054610c7690612235565b80601f0160208091040260200160405190810160405280929190818152602001828054610ca290612235565b8015610cef5780601f10610cc457610100808354040283529160200191610cef565b820191906000526020600020905b815481529060010190602001808311610cd257829003601f168201915b5050505050815260200160018201548152602001600282018054610d1290612235565b80601f0160208091040260200160405190810160405280929190818152602001828054610d3e90612235565b8015610d8b5780601f10610d6057610100808354040283529160200191610d8b565b820191906000526020600020905b815481529060010190602001808311610d6e57829003601f168201915b50505050508152602001600382018054610da490612235565b80601f0160208091040260200160405190810160405280929190818152602001828054610dd090612235565b8015610e1d5780601f10610df257610100808354040283529160200191610e1d565b820191906000526020600020905b815481529060010190602001808311610e0057829003601f168201915b5050505050815260200160048201548152505090506000803373ffffffffffffffffffffffffffffffffffffffff1673ffffffffffffffffffffffffffffffffffffffff16815260200190815260200160002060016000803373ffffffffffffffffffffffffffffffffffffffff1673ffffffffffffffffffffffffffffffffffffffff16815260200190815260200160002080549050610ebe9190612177565b81548110610ef5577f4e487b7100000000000000000000000000000000000000000000000000000000600052603260045260246000fd5b90600052602060002090600502016000803373ffffffffffffffffffffffffffffffffffffffff1673ffffffffffffffffffffffffffffffffffffffff1681526020019081526020016000208481548110610f79577f4e487b7100000000000000000000000000000000000000000000000000000000600052603260045260246000fd5b90600052602060002090600502016000820181600001908054610f9b90612235565b610fa69291906116cb565b50600182015481600101556002820181600201908054610fc590612235565b610fd09291906116cb565b506003820181600301908054610fe590612235565b610ff09291906116cb565b50600482015481600401559050506000803373ffffffffffffffffffffffffffffffffffffffff1673ffffffffffffffffffffffffffffffffffffffff168152602001908152602001600020805480611072577f4e487b7100000000000000000000000000000000000000000000000000000000600052603160045260246000fd5b6001900381819060005260206000209060050201600080820160006110979190611758565b60018201600090556002820160006110af9190611758565b6003820160006110bf9190611758565b6004820160009055505090557fa5fe950bd3711204c4010981416615deae62deefb655669a2b082cb075edb4eb816000015182602001518360400151846060015142604051611112959493929190611e35565b60405180910390a16001915050919050565b60008060003373ffffffffffffffffffffffffffffffffffffffff1673ffffffffffffffffffffffffffffffffffffffff1681526020019081526020016000208054905082106111a9576040517f08c379a00000000000000000000000000000000000000000000000000000000081526004016111a090611ffd565b60405180910390fd5b3373ffffffffffffffffffffffffffffffffffffffff168373ffffffffffffffffffffffffffffffffffffffff161415611218576040517f08c379a000000000000000000000000000000000000000000000000000000000815260040161120f90611edd565b60405180910390fd5b600073ffffffffffffffffffffffffffffffffffffffff168373ffffffffffffffffffffffffffffffffffffffff161415611288576040517f08c379a000000000000000000000000000000000000000000000000000000000815260040161127f90611ebd565b60405180910390fd5b60008060003373ffffffffffffffffffffffffffffffffffffffff1673ffffffffffffffffffffffffffffffffffffffff1681526020019081526020016000208381548110611300577f4e487b7100000000000000000000000000000000000000000000000000000000600052603260045260246000fd5b90600052602060002090600502016040518060a001604052908160008201805461132990612235565b80601f016020809104026020016040519081016040528092919081815260200182805461135590612235565b80156113a25780601f10611377576101008083540402835291602001916113a2565b820191906000526020600020905b81548152906001019060200180831161138557829003601f168201915b50505050508152602001600182015481526020016002820180546113c590612235565b80601f01602080910402602001604051908101604052809291908181526020018280546113f190612235565b801561143e5780601f106114135761010080835404028352916020019161143e565b820191906000526020600020905b81548152906001019060200180831161142157829003601f168201915b5050505050815260200160038201805461145790612235565b80601f016020809104026020016040519081016040528092919081815260200182805461148390612235565b80156114d05780601f106114a5576101008083540402835291602001916114d0565b820191906000526020600020905b8154815290600101906020018083116114b357829003601f168201915b5050505050815260200160048201548152505090506000808573ffffffffffffffffffffffffffffffffffffffff1673ffffffffffffffffffffffffffffffffffffffff1681526020019081526020016000208190806001815401808255809150506001900390600052602060002090600502016000909190919091506000820151816000019080519060200190611569929190611645565b50602082015181600101556040820151816002019080519060200190611590929190611645565b5060608201518160030190805190602001906115ad929190611645565b506080820151816004015550507f5b098669427a36c497b9ca5a8269a84d3e1ce05f9e9ac537d4b1de8a6f06dbc38482600001518360200151846040015185606001514260405161160396959493929190611d82565b60405180910390a1600191505092915050565b6040518060a0016040528060608152602001600081526020016060815260200160608152602001600081525090565b82805461165190612235565b90600052602060002090601f01602090048101928261167357600085556116ba565b82601f1061168c57805160ff19168380011785556116ba565b828001600101855582156116ba579182015b828111156116b957825182559160200191906001019061169e565b5b5090506116c79190611798565b5090565b8280546116d790612235565b90600052602060002090601f0160209004810192826116f95760008555611747565b82601f1061170a5780548555611747565b8280016001018555821561174757600052602060002091601f016020900482015b8281111561174657825482559160010191906001019061172b565b5b5090506117549190611798565b5090565b50805461176490612235565b6000825580601f106117765750611795565b601f0160209004906000526020600020908101906117949190611798565b5b50565b5b808211156117b1576000816000905550600101611799565b5090565b60006117c86117c38461207f565b61205a565b9050828152602081018484840111156117e057600080fd5b6117eb8482856121f3565b509392505050565b6000813590506118028161256e565b92915050565b600082601f83011261181957600080fd5b81356118298482602086016117b5565b91505092915050565b60008135905061184181612585565b92915050565b6000806040838503121561185a57600080fd5b6000611868858286016117f3565b925050602061187985828601611832565b9150509250929050565b6000806000806080858703121561189957600080fd5b600085013567ffffffffffffffff8111156118b357600080fd5b6118bf87828801611808565b94505060206118d087828801611832565b935050604085013567ffffffffffffffff8111156118ed57600080fd5b6118f987828801611808565b925050606085013567ffffffffffffffff81111561191657600080fd5b61192287828801611808565b91505092959194509250565b60006020828403121561194057600080fd5b600061194e84828501611832565b91505092915050565b60006119638383611c45565b905092915050565b611974816121ab565b82525050565b6000611985826120c0565b61198f81856120e3565b9350836020820285016119a1856120b0565b8060005b858110156119dd57848403895281516119be8582611957565b94506119c9836120d6565b925060208a019950506001810190506119a5565b50829750879550505050505092915050565b6119f8816121bd565b82525050565b6000611a09826120cb565b611a1381856120f4565b9350611a23818560208601612202565b611a2c81612325565b840191505092915050565b6000611a42826120cb565b611a4c8185612105565b9350611a5c818560208601612202565b611a6581612325565b840191505092915050565b6000611a7b826120cb565b611a858185612116565b9350611a95818560208601612202565b80840191505092915050565b6000611aae601483612105565b9150611ab982612336565b602082019050919050565b6000611ad1600d83612105565b9150611adc8261235f565b602082019050919050565b6000611af4600c83612105565b9150611aff82612388565b602082019050919050565b6000611b17601483612105565b9150611b22826123b1565b602082019050919050565b6000611b3a602983612105565b9150611b45826123da565b604082019050919050565b6000611b5d600f83612105565b9150611b6882612429565b602082019050919050565b6000611b80601c83612105565b9150611b8b82612452565b602082019050919050565b6000611ba3601b83612105565b9150611bae8261247b565b602082019050919050565b6000611bc6601983612105565b9150611bd1826124a4565b602082019050919050565b6000611be9601383612105565b9150611bf4826124cd565b602082019050919050565b6000611c0c602483612105565b9150611c17826124f6565b604082019050919050565b6000611c2f601483612105565b9150611c3a82612545565b602082019050919050565b600060a0830160008301518482036000860152611c6282826119fe565b9150506020830151611c776020860182611d4d565b5060408301518482036040860152611c8f82826119fe565b91505060608301518482036060860152611ca982826119fe565b9150506080830151611cbe6080860182611d4d565b508091505092915050565b600060a0830160008301518482036000860152611ce682826119fe565b9150506020830151611cfb6020860182611d4d565b5060408301518482036040860152611d1382826119fe565b91505060608301518482036060860152611d2d82826119fe565b9150506080830151611d426080860182611d4d565b508091505092915050565b611d56816121e9565b82525050565b611d65816121e9565b82525050565b6000611d778284611a70565b915081905092915050565b600060c082019050611d97600083018961196b565b8181036020830152611da98188611a37565b9050611db86040830187611d5c565b8181036060830152611dca8186611a37565b90508181036080830152611dde8185611a37565b9050611ded60a0830184611d5c565b979650505050505050565b60006020820190508181036000830152611e12818461197a565b905092915050565b6000602082019050611e2f60008301846119ef565b92915050565b600060a0820190508181036000830152611e4f8188611a37565b9050611e5e6020830187611d5c565b8181036040830152611e708186611a37565b90508181036060830152611e848185611a37565b9050611e936080830184611d5c565b9695505050505050565b60006020820190508181036000830152611eb681611aa1565b9050919050565b60006020820190508181036000830152611ed681611ac4565b9050919050565b60006020820190508181036000830152611ef681611ae7565b9050919050565b60006020820190508181036000830152611f1681611b0a565b9050919050565b60006020820190508181036000830152611f3681611b2d565b9050919050565b60006020820190508181036000830152611f5681611b50565b9050919050565b60006020820190508181036000830152611f7681611b73565b9050919050565b60006020820190508181036000830152611f9681611b96565b9050919050565b60006020820190508181036000830152611fb681611bb9565b9050919050565b60006020820190508181036000830152611fd681611bdc565b9050919050565b60006020820190508181036000830152611ff681611bff565b9050919050565b6000602082019050818103600083015261201681611c22565b9050919050565b600060208201905081810360008301526120378184611cc9565b905092915050565b60006020820190506120546000830184611d5c565b92915050565b6000612064612075565b90506120708282612267565b919050565b6000604051905090565b600067ffffffffffffffff82111561209a576120996122f6565b5b6120a382612325565b9050602081019050919050565b6000819050602082019050919050565b600081519050919050565b600081519050919050565b6000602082019050919050565b600082825260208201905092915050565b600082825260208201905092915050565b600082825260208201905092915050565b600081905092915050565b600061212c826121e9565b9150612137836121e9565b9250827fffffffffffffffffffffffffffffffffffffffffffffffffffffffffffffffff0382111561216c5761216b612298565b5b828201905092915050565b6000612182826121e9565b915061218d836121e9565b9250828210156121a05761219f612298565b5b828203905092915050565b60006121b6826121c9565b9050919050565b60008115159050919050565b600073ffffffffffffffffffffffffffffffffffffffff82169050919050565b6000819050919050565b82818337600083830152505050565b60005b83811015612220578082015181840152602081019050612205565b8381111561222f576000848401525b50505050565b6000600282049050600182168061224d57607f821691505b60208210811415612261576122606122c7565b5b50919050565b61227082612325565b810181811067ffffffffffffffff8211171561228f5761228e6122f6565b5b80604052505050565b7f4e487b7100000000000000000000000000000000000000000000000000000000600052601160045260246000fd5b7f4e487b7100000000000000000000000000000000000000000000000000000000600052602260045260246000fd5b7f4e487b7100000000000000000000000000000000000000000000000000000000600052604160045260246000fd5b6000601f19601f8301169050919050565b7f4e616d652063616e6e6f7420626520656d707479000000000000000000000000600082015250565b7f4e756c6c20616464726573732100000000000000000000000000000000000000600082015250565b7f546f20796f757273656c66210000000000000000000000000000000000000000600082015250565b7f486173682063616e6e6f7420626520656d707479000000000000000000000000600082015250565b7f4d696d6520747970652063616e6e6f74206265206c6f6e676572207468616e2060008201527f3132382062797465730000000000000000000000000000000000000000000000602082015250565b7f4e6f2066696c657320666f756e64210000000000000000000000000000000000600082015250565b7f53697a65206d757374206265206c657373207468616e20322a2a333000000000600082015250565b7f53697a65206d7573742062652067726561746572207468616e20300000000000600082015250565b7f4d696d6520747970652063616e6e6f7420626520656d70747900000000000000600082015250565b7f496e646578206f7574206f6620626f756e647300000000000000000000000000600082015250565b7f4e616d652063616e6e6f74206265206c6f6e676572207468616e20353132206260008201527f7974657300000000000000000000000000000000000000000000000000000000602082015250565b7f496e646578206f7574206f6620626f756e647321000000000000000000000000600082015250565b612577816121ab565b811461258257600080fd5b50565b61258e816121e9565b811461259957600080fd5b5056fea2646970667358221220dacfc088b9c665acea096a1b71316fd89b28f738e768ccd5f82682745268b01864736f6c63430008040033",
  "linkReferences": {},
  "deployedLinkReferences": {}
}