{
  "_format": "hh-sol-artifact-1",
  "contractName": "Storage",
  "sourceName": "contracts/storage.sol",
  "abi": [
    {
      "anonymous": false,
      "inputs": [
        {
          "indexed": false,
          "internalType": "string",
          "name": "name",
          "type": "string"
        },
        {
          "indexed": false,
          "internalType": "uint256",
          "name": "size",
          "type": "uint256"
        },
        {
          "indexed": false,
          "internalType": "string",
          "name": "mimeType",
          "type": "string"
        },
        {
          "indexed": false,
          "internalType": "string",
          "name": "hash",
          "type": "string"
        },
        {
          "indexed": false,
          "internalType": "uint256",
          "name": "uploadTime",
          "type": "uint256"
        }
      ],
      "name": "FileRemoved",
      "type": "event"
    },
    {
      "anonymous": false,
      "inputs": [
        {
          "indexed": false,
          "internalType": "address",
          "name": "to",
          "type": "address"
        },
        {
          "indexed": false,
          "internalType": "string",
          "name": "name",
          "type": "string"
        },
        {
          "indexed": false,
          "internalType": "uint256",
          "name": "size",
          "type": "uint256"
        },
        {
          "indexed": false,
          "internalType": "string",
          "name": "mimeType",
          "type": "string"
        },
        {
          "indexed": false,
          "internalType": "string",
          "name": "hash",
          "type": "string"
        },
        {
          "indexed": false,
          "internalType": "uint256",
          "name": "uploadTime",
          "type": "uint256"
        }
      ],
      "name": "FileShared",
      "type": "event"
    },
    {
      "anonymous": false,
      "inputs": [
        {
          "indexed": false,
          "internalType": "string",
          "name": "name",
          "type": "string"
        },
        {
          "indexed": false,
          "internalType": "uint256",
          "name": "size",
          "type": "uint256"
        },
        {
          "indexed": false,
          "internalType": "string",
          "name": "mimeType",
          "type": "string"
        },
        {
          "indexed": false,
          "internalType": "string",
          "name": "hash",
          "type": "string"
        },
        {
          "indexed": false,
          "internalType": "uint256",
          "name": "uploadTime",
          "type": "uint256"
        }
      ],
      "name": "FileStored",
      "type": "event"
    },
    {
      "inputs": [
        {
          "internalType": "uint256",
          "name": "_index",
          "type": "uint256"
        }
      ],
      "name": "getFile",
      "outputs": [
        {
          "components": [
            {
              "internalType": "string",
              "name": "name",
              "type": "string"
            },
            {
              "internalType": "uint256",
              "name": "size",
              "type": "uint256"
            },
            {
              "internalType": "string",
              "name": "mimeType",
              "type": "string"
            },
            {
              "internalType": "string",
              "name": "hash",
              "type": "string"
            },
            {
              "internalType": "uint256",
              "name": "uploadTime",
              "type": "uint256"
            }
          ],
          "internalType": "struct Storage.File",
          "name": "",
          "type": "tuple"
        }
      ],
      "stateMutability": "view",
      "type": "function"
    },
    {
      "inputs": [],
      "name": "getFiles",
      "outputs": [
        {
          "components": [
            {
              "internalType": "string",
              "name": "name",
              "type": "string"
            },
            {
              "internalType": "uint256",
              "name": "size",
              "type": "uint256"
            },
            {
              "internalType": "string",
              "name": "mimeType",
              "type": "string"
            },
            {
              "internalType": "string",
              "name": "hash",
              "type": "string"
            },
            {
              "internalType": "uint256",
              "name": "uploadTime",
              "type": "uint256"
            }
          ],
          "internalType": "struct Storage.File[]",
          "name": "",
          "type": "tuple[]"
        }
      ],
      "stateMutability": "view",
      "type": "function"
    },
    {
      "inputs": [],
      "name": "getFilesLength",
      "outputs": [
        {
          "internalType": "uint256",
          "name": "",
          "type": "uint256"
        }
      ],
      "stateMutability": "view",
      "type": "function"
    },
    {
      "inputs": [
        {
          "internalType": "uint256",
          "name": "_index",
          "type": "uint256"
        }
      ],
      "name": "removeFile",
      "outputs": [
        {
          "internalType": "bool",
          "name": "",
          "type": "bool"
        }
      ],
      "stateMutability": "nonpayable",
      "type": "function"
    },
    {
      "inputs": [
        {
          "internalType": "address",
          "name": "_to",
          "type": "address"
        },
        {
          "internalType": "uint256",
          "name": "_index",
          "type": "uint256"
        }
      ],
      "name": "shareFile",
      "outputs": [
        {
          "internalType": "bool",
          "name": "",
          "type": "bool"
        }
      ],
      "stateMutability": "nonpayable",
      "type": "function"
    },
    {
      "inputs": [
        {
          "internalType": "string",
          "name": "_name",
          "type": "string"
        },
        {
          "internalType": "uint256",
          "name": "_size",
          "type": "uint256"
        },
        {
          "internalType": "string",
          "name": "_mimeType",
          "type": "string"
        },
        {
          "internalType": "string",
          "name": "_hash",
          "type": "string"
        }
      ],
      "name": "storeFile",
      "outputs": [
        {
          "internalType": "bool",
          "name": "",
          "type": "bool"
        }
      ],
      "stateMutability": "nonpayable",
      "type": "function"
    }
  ],
  "bytecode": "0x608060405234801561001057600080fd5b506136ae806100206000396000f3fe608060405234801561001057600080fd5b50600436106100625760003560e01c80632bfda313146100675780632da96d73146100975780635956c40b146100b55780636d429aac146100d35780639926b03f14610103578063c11126e514610133575b600080fd5b610081600480360381019061007c9190612a0a565b610163565b60405161008e91906130f9565b60405180910390f35b61009f610582565b6040516100ac9190612ed4565b60405180910390f35b6100bd61099f565b6040516100ca919061311b565b60405180910390f35b6100ed60048036038101906100e8919061295f565b610a6c565b6040516100fa9190612ef6565b60405180910390f35b61011d60048036038101906101189190612a0a565b6115f9565b60405161012a9190612ef6565b60405180910390f35b61014d60048036038101906101489190612923565b611e61565b60405161015a9190612ef6565b60405180910390f35b61016b6126f2565b6101977f892a0a6ecd2edf06c144e828cca51be6242513d8fd2ecab9bdeb616c54c0047960001b6126ef565b6101c37f27c8dcb9c1a3c7c498f4c3645083626d2aaf26cfce9360c4370575bdd0600e1760001b6126ef565b6101ef7f526aefee5bd114c0f43eb9b0fae2b43b4d2f77382e98b87f1079859132fc59ef60001b6126ef565b61021b7f94ad7508fdce31751d0b1f47573cd27c662284db89b026d113c95bae485e590760001b6126ef565b6000803373ffffffffffffffffffffffffffffffffffffffff1673ffffffffffffffffffffffffffffffffffffffff16815260200190815260200160002080549050821061029e576040517f08c379a000000000000000000000000000000000000000000000000000000000815260040161029590613099565b60405180910390fd5b6102ca7f6853c97399e9cff77e0f85a6d707ecc76a5e845a19d14accb00832000cb8682860001b6126ef565b6102f67fdf08ea7423a94d708bb66aa2d9992192a6819aebc39114bc772a66e3a4179cd660001b6126ef565b6103227fe0df1297679753d478e69d0d3f8a14a4f1aab545388dd860d072dc98eb6eb14460001b6126ef565b6000803373ffffffffffffffffffffffffffffffffffffffff1673ffffffffffffffffffffffffffffffffffffffff1681526020019081526020016000208281548110610398577f4e487b7100000000000000000000000000000000000000000000000000000000600052603260045260246000fd5b90600052602060002090600502016040518060a00160405290816000820180546103c190613311565b80601f01602080910402602001604051908101604052809291908181526020018280546103ed90613311565b801561043a5780601f1061040f5761010080835404028352916020019161043a565b820191906000526020600020905b81548152906001019060200180831161041d57829003601f168201915b505050505081526020016001820154815260200160028201805461045d90613311565b80601f016020809104026020016040519081016040528092919081815260200182805461048990613311565b80156104d65780601f106104ab576101008083540402835291602001916104d6565b820191906000526020600020905b8154815290600101906020018083116104b957829003601f168201915b505050505081526020016003820180546104ef90613311565b80601f016020809104026020016040519081016040528092919081815260200182805461051b90613311565b80156105685780601f1061053d57610100808354040283529160200191610568565b820191906000526020600020905b81548152906001019060200180831161054b57829003601f168201915b505050505081526020016004820154815250509050919050565b60606105b07ff38956e46b48860c1c13be66047364f7c808b8845bcd3e4d1e20a12fac303e2960001b6126ef565b6105dc7f122cfbd4ffbf7ed94c41ddd61e22bbd6156e0b25898e7590ed6b165c90d8c01c60001b6126ef565b6106087f713f068259b8eb4720b0dc1464a704aec956924a4298b5502ea026e0c46c9a3860001b6126ef565b6106347f15b771ef351592473552c1d7db7190dd7927250223dc7c6a4dd139bb88d0b80260001b6126ef565b60008060003373ffffffffffffffffffffffffffffffffffffffff1673ffffffffffffffffffffffffffffffffffffffff16815260200190815260200160002080549050116106b8576040517f08c379a00000000000000000000000000000000000000000000000000000000081526004016106af90613019565b60405180910390fd5b6106e47f0952710c3ed7fb94ec0f5b97e628473e9513f81d965faf35f606d6e0d6a7020a60001b6126ef565b6107107f25d1664f8f18000c258cb92fd0b17af2c1d8e51fbedec27de19545ace5d8d77260001b6126ef565b61073c7f793e2b4f3c4d0c15837cf4f4b9d889fee05ca1126c6a74240c0750ec5cfca45660001b6126ef565b6000803373ffffffffffffffffffffffffffffffffffffffff1673ffffffffffffffffffffffffffffffffffffffff168152602001908152602001600020805480602002602001604051908101604052809291908181526020016000905b8282101561099657838290600052602060002090600502016040518060a00160405290816000820180546107cd90613311565b80601f01602080910402602001604051908101604052809291908181526020018280546107f990613311565b80156108465780601f1061081b57610100808354040283529160200191610846565b820191906000526020600020905b81548152906001019060200180831161082957829003601f168201915b505050505081526020016001820154815260200160028201805461086990613311565b80601f016020809104026020016040519081016040528092919081815260200182805461089590613311565b80156108e25780601f106108b7576101008083540402835291602001916108e2565b820191906000526020600020905b8154815290600101906020018083116108c557829003601f168201915b505050505081526020016003820180546108fb90613311565b80601f016020809104026020016040519081016040528092919081815260200182805461092790613311565b80156109745780601f1061094957610100808354040283529160200191610974565b820191906000526020600020905b81548152906001019060200180831161095757829003601f168201915b505050505081526020016004820154815250508152602001906001019061079a565b50505050905090565b60006109cd7fac33463e4652843d9412fa2053135f326d1450a16205c5f366fede85ea8aaf5760001b6126ef565b6109f97f881e385da8135c22c9140c36080c0aca8e54606c299be5de8e01adb76e20746a60001b6126ef565b610a257f150c3188d7b148468a5fcf26255eaa7f30d7d6ea963b9f4fea0ff53d152a153360001b6126ef565b6000803373ffffffffffffffffffffffffffffffffffffffff1673ffffffffffffffffffffffffffffffffffffffff16815260200190815260200160002080549050905090565b6000610a9a7ff0ede80dbb186a3a9a636613b1a4c96247012897f28e3e7a331d78ba8ad427f360001b6126ef565b610ac67f5678ee45160aaeb490bb673b2502ffabdd82c07ee3caf4eae946fbe614af12df60001b6126ef565b610af27f4a6feb8c454ae30d69f85ac21bb4a20125fa8be0d668c11a55e393057c217a6c60001b6126ef565b610b1e7fa4c2e85421c3cf09d05cce65582e1125759a1c8b4327355b80075082c70ca5c760001b6126ef565b6000855111610b62576040517f08c379a0000000000000000000000000000000000000000000000000000000008152600401610b5990612f79565b60405180910390fd5b610b8e7fa8d666bebb8745af46bbfcfd8e4516c7198287403a75d6270609e249ade0cfef60001b6126ef565b610bba7f357b77aebee98c5c65614a14bc9b2c8f08f130eaae2dfecd776853959217b31460001b6126ef565b610be67fb04d5127ee15ca2649fc954cde30bac371943c8283ab6a89bbf39f093bd5cf2060001b6126ef565b610c127f11ddd8794159d395fa6999dc8f4fa7fb537f49719eb0624156e926ff6ad53dd560001b6126ef565b61020085511115610c58576040517f08c379a0000000000000000000000000000000000000000000000000000000008152600401610c4f906130b9565b60405180910390fd5b610c847f37c08304e07047e32621d7d77a4cd423d1fdeb78db772f8f86b82492a182b17860001b6126ef565b610cb07f5c61c03f5c69e61e28668f896060c274ef6919b3cfa368369c184a9faaf2fcdb60001b6126ef565b610cdc7f320739afdacdfcad1a5824dbd33015fb004b8b6e118b063206cb73e0b4861ad160001b6126ef565b610d087f1eb0ab75fa7cdc6d1f2b36c99e6bbc74a30f78edb59c39e497f8efbcd7ebe2c260001b6126ef565b60008411610d4b576040517f08c379a0000000000000000000000000000000000000000000000000000000008152600401610d4290613059565b60405180910390fd5b610d777fce7969789192271ffe9c0167e895b898d0ecc1ed5c18391bad04b6d575fdb44260001b6126ef565b610da37faf21709f200eeed72794376821f77122e969fb7ec7659cc017ad34f7efd0e11c60001b6126ef565b610dcf7f7104c8f1e1a619e9430b7d532c221342e27503731fbea3adb7e05ce6695fc48160001b6126ef565b610dfb7f1440dd5ced62b6ebcd9fc6be3942512c4aba69a525f985ed076110bc12884a4560001b6126ef565b6340000000841115610e42576040517f08c379a0000000000000000000000000000000000000000000000000000000008152600401610e3990613039565b60405180910390fd5b610e6e7fc468726e9c4ea80f987d9215b5ae791cddcb302c7debeb19ddeca75d8961e81f60001b6126ef565b610e9a7fb32d42dd6f1143b6c3037896feacec7b99af8451b74e1fcba782ceba400fc6d860001b6126ef565b610ec67fe78a8984da0ddeea462d365e448e95e98fe4a5be94923f73a026753810005f1d60001b6126ef565b610ef27ff9feaebad73bfdf264ebaa886606e21c0c7f86d98074783f4e927dc92fa1c6c360001b6126ef565b6000835111610f36576040517f08c379a0000000000000000000000000000000000000000000000000000000008152600401610f2d90613079565b60405180910390fd5b610f627f0a07d75ea9ec1a7bd561f9d6432d0d917588a78c93a2efa07e46fba5d9a1b7e360001b6126ef565b610f8e7f96c48c3df0a0f3c1ccfcecab62539078c5f73b270884084f49b8a6e6a369823f60001b6126ef565b610fba7f960286858ccb882f52e8a0611568c8ee3007a1520374f375e3fb29a3895ae91a60001b6126ef565b610fe67f18f6fc7eb902083347b56ce1b2bb76a816e5eaf9a61ff18a8ad55c309cc675a260001b6126ef565b60808351111561102b576040517f08c379a000000000000000000000000000000000000000000000000000000000815260040161102290612ff9565b60405180910390fd5b6110577f205dfd01d37719e0680bddea2cf00981d03aea777e25b6cb2d42058ce0c8a98360001b6126ef565b6110837f87549f636dd9f47f985e579222282e56c88f722a1a1a6e11befcddde05e309ee60001b6126ef565b6110af7f4fcbfd3f257bb92f66e46429bb67d7c029024f02b460c75a0cfb19c3916666ef60001b6126ef565b6110db7fd1d66b9030b89fe2efbf937ac32e433c5472f186a60049eb03d67aa2adbe0be860001b6126ef565b600082511161111f576040517f08c379a000000000000000000000000000000000000000000000000000000000815260040161111690612fd9565b60405180910390fd5b61114b7f891deba75baf686dda49ae3a2b3d8bce1171cff52cb3a3fd7a27b0b9072fcc8660001b6126ef565b6111777f4214ee0cab6be3e05ff97c3b1d81a1e8561a25d8f0c6d1a253fd831e546b7d7860001b6126ef565b6111a37fa2d0cb4eca58a02e5bdd5ec8121f6ce82fca96d52ed446f63f17faa3382c5d4460001b6126ef565b60006040518060a001604052808781526020018681526020018581526020018481526020014281525090506111fa7fd9d1348ea802d8a1b91e59d6bd26017b1917b8821d48853fa44cf029ef9a5b0460001b6126ef565b6112267f0ba508c6a7124bb376e02a8f8cfc169822663f4c5bc6748206ca7edb55dcfa7260001b6126ef565b60006001846040516112389190612e47565b9081526020016040518091039020541415611567576112797ffae16f9dee3eeb4ba0963a2c61ab221cee5fee747992be90d2b807bb5932abc560001b6126ef565b6112a57f66427ee73850521cbb5b83bd0213c188c29ff08fa21d2c5cc7531359a75e6d7260001b6126ef565b6112d17f1191aeaefd1e5dd5c5380d93e8e71852afdb235e0bef1190e7b306145ab07f0960001b6126ef565b60016000803373ffffffffffffffffffffffffffffffffffffffff1673ffffffffffffffffffffffffffffffffffffffff1681526020019081526020016000208054905061131f91906131fd565b60018460405161132f9190612e47565b90815260200160405180910390208190555061136d7f6a8713b88c8cb21107ff9667ef171b605adc4fb80b0fc146bf2ab02dc6efccf360001b6126ef565b6113997f97e5101c3971acb9d4b0338b5d34cefc7b0b207c477e2f0088b271267e8dfd6360001b6126ef565b6000803373ffffffffffffffffffffffffffffffffffffffff1673ffffffffffffffffffffffffffffffffffffffff168152602001908152602001600020819080600181540180825580915050600190039060005260206000209060050201600090919091909150600082015181600001908051906020019061141d929190612721565b50602082015181600101556040820151816002019080519060200190611444929190612721565b506060820151816003019080519060200190611461929190612721565b5060808201518160040155505061149a7f491ed95981a5b163952154a9f38b89d2e083848466c7d1c6e2243a598ffcddc360001b6126ef565b6114c67f3a530d9a2f570d0aa9c86b811dce3672d59e7ab9b28b004a540c36a96e131bd860001b6126ef565b7fbadc8bdf41de0b160087b2606a95454c625d9db94d24f511db596304dbed1f6586868686426040516114fd959493929190612f11565b60405180910390a16115317fc77b74c6ab09ee1753d08b949b43d4681bdb3c8759423db04c380b93587679f360001b6126ef565b61155d7f6670eba3fd5e37403b607b7a73fecc56e4be78710011f2627482e509e1f57a4660001b6126ef565b60019150506115f1565b6115937f9dd75d7e7caf554f262f9af10c67c8c1be5640f67f3203373ea1fbd612c1d5ca60001b6126ef565b6115bf7f55875ad588bafa95590848072bbf5251062a0e3a65129d6a52b272294a4db9e560001b6126ef565b6115eb7f95d56906b06685b1bccb2af22a489c40867b1cc020fe83a0b885059f5127a35960001b6126ef565b60009150505b949350505050565b60006116277fa5ec74c452006d8c8baacf6458664081c3264a0c5eda8e884119796c14e334e860001b6126ef565b6116537fc8b6966f81d89f3ef9af9936d0704ef863d25f0c4351e870bfa5395d91606f5f60001b6126ef565b61167f7ffec98afbd63435a6b9d0bcc5403f20140d05e069c173675178e5472a8260dd2c60001b6126ef565b6116ab7fbc1a3e2ae296d65c23a776cde311fc2b2d653c87621fde7c0983a5aede879bc160001b6126ef565b6000803373ffffffffffffffffffffffffffffffffffffffff1673ffffffffffffffffffffffffffffffffffffffff16815260200190815260200160002080549050821061172e576040517f08c379a0000000000000000000000000000000000000000000000000000000008152600401611725906130d9565b60405180910390fd5b61175a7fa9ee895c106076a6c03bdb8127cbcc1a11492682ce213e967d2710c564d0bb4f60001b6126ef565b6117867fef2a206ca5e5c71dddabbe3a510ec8a4baa5e4f51eb7eff6f6e2b83cef28f41060001b6126ef565b6117b27f624bb23b9e1c3a5cab4f7db0adc9aa70638454e8da70e020ef83ae8cd385413d60001b6126ef565b60008060003373ffffffffffffffffffffffffffffffffffffffff1673ffffffffffffffffffffffffffffffffffffffff168152602001908152602001600020838154811061182a577f4e487b7100000000000000000000000000000000000000000000000000000000600052603260045260246000fd5b90600052602060002090600502016040518060a001604052908160008201805461185390613311565b80601f016020809104026020016040519081016040528092919081815260200182805461187f90613311565b80156118cc5780601f106118a1576101008083540402835291602001916118cc565b820191906000526020600020905b8154815290600101906020018083116118af57829003601f168201915b50505050508152602001600182015481526020016002820180546118ef90613311565b80601f016020809104026020016040519081016040528092919081815260200182805461191b90613311565b80156119685780601f1061193d57610100808354040283529160200191611968565b820191906000526020600020905b81548152906001019060200180831161194b57829003601f168201915b5050505050815260200160038201805461198190613311565b80601f01602080910402602001604051908101604052809291908181526020018280546119ad90613311565b80156119fa5780601f106119cf576101008083540402835291602001916119fa565b820191906000526020600020905b8154815290600101906020018083116119dd57829003601f168201915b505050505081526020016004820154815250509050611a3b7f5987970878549390f36bca3e224356acb3e157a9662d6b36ba364cdc530c3c4c60001b6126ef565b611a677f1fe9c97afb144ab91f4e0b0b521fb6abe5c94a1ce7af6fd3405f02d59df2245a60001b6126ef565b6000803373ffffffffffffffffffffffffffffffffffffffff1673ffffffffffffffffffffffffffffffffffffffff16815260200190815260200160002060016000803373ffffffffffffffffffffffffffffffffffffffff1673ffffffffffffffffffffffffffffffffffffffff16815260200190815260200160002080549050611af39190613253565b81548110611b2a577f4e487b7100000000000000000000000000000000000000000000000000000000600052603260045260246000fd5b90600052602060002090600502016000803373ffffffffffffffffffffffffffffffffffffffff1673ffffffffffffffffffffffffffffffffffffffff1681526020019081526020016000208481548110611bae577f4e487b7100000000000000000000000000000000000000000000000000000000600052603260045260246000fd5b90600052602060002090600502016000820181600001908054611bd090613311565b611bdb9291906127a7565b50600182015481600101556002820181600201908054611bfa90613311565b611c059291906127a7565b506003820181600301908054611c1a90613311565b611c259291906127a7565b5060048201548160040155905050611c5f7ffeb4d7911ddcec02e14cfdf5e794bbb56f4f936b09da685d99acffa13289beb460001b6126ef565b611c8b7fa8d01bea6ac976e70148dba5bf9a6c3c138a134fc9dc81f631d92a9cdabe346760001b6126ef565b6000803373ffffffffffffffffffffffffffffffffffffffff1673ffffffffffffffffffffffffffffffffffffffff168152602001908152602001600020805480611cff577f4e487b7100000000000000000000000000000000000000000000000000000000600052603160045260246000fd5b600190038181906000526020600020906005020160008082016000611d249190612834565b6001820160009055600282016000611d3c9190612834565b600382016000611d4c9190612834565b600482016000905550509055611d847f8fc6ac996c7afa5d0a85f11384f9fbac6f3a06904f6af69fc773a85d84d3134660001b6126ef565b611db07ff403077553b790b9414ae6338b1080e17520d880ac36cfb1cdc7b20fb5c680fe60001b6126ef565b7fa5fe950bd3711204c4010981416615deae62deefb655669a2b082cb075edb4eb816000015182602001518360400151846060015142604051611df7959493929190612f11565b60405180910390a1611e2b7fff7df0a7169de133d4ef0e5e182ec60a3810408f2c2a5482ea70523ba834dbde60001b6126ef565b611e577f292b320a3dd11b5b7cd6af888ca61806c036213562dc8b6977bc4deb200260da60001b6126ef565b6001915050919050565b6000611e8f7f3a2fd6e43065d3c2e40854b6b8475b27274d9c907c22824292f2fa2489009c8360001b6126ef565b611ebb7f067008514cd88992022dcf8c3e7524bc127ca968c33259a73fee98e98dc3aac060001b6126ef565b611ee77f7566e64e677a0b7e3ee7699ffaf882be9b9f3a8dfdcbfb2dad1ca33601fe6a3160001b6126ef565b611f137fab484c7d28bc6220389470f9d2582841fed3e6b8eea4108c9f97a04ce5f13d6860001b6126ef565b6000803373ffffffffffffffffffffffffffffffffffffffff1673ffffffffffffffffffffffffffffffffffffffff168152602001908152602001600020805490508210611f96576040517f08c379a0000000000000000000000000000000000000000000000000000000008152600401611f8d906130d9565b60405180910390fd5b611fc27fe288f78ca19f4585a2708e5d1d1ae3eb1a412b281b8d08eef172547dc4563d3660001b6126ef565b611fee7f8dbc61086f13c7b6d6e97260992d0c9143ebd489e0d5d2f9069d39ec0a5db47060001b6126ef565b61201a7f02b7d25b7f5c03ff6bb99d380bbcfcd56b47078e7cbd260c1c1c6c54a836bd4460001b6126ef565b6120467f5dee7d6e8c22118fb31086486f7efa600ad65c14d1d0a61e5da02f07f1d26a2160001b6126ef565b3373ffffffffffffffffffffffffffffffffffffffff168373ffffffffffffffffffffffffffffffffffffffff1614156120b5576040517f08c379a00000000000000000000000000000000000000000000000000000000081526004016120ac90612fb9565b60405180910390fd5b6120e17f7a1e9356e34f669d26d437c8b034d15629fa6d9b70dccc9d12f56492584f678560001b6126ef565b61210d7f7446a44e418c4e5805c104b7a5a6b5474feca0ededeb493eed80f8e7e8ad1bb660001b6126ef565b6121397fbdde08084a4bc5a03358b754cf4c7848c026ecacdbaef3693723949a6a31382360001b6126ef565b6121657f3925dc53d54727db15be79316a58bd28953ebe71c6704b380929e2e9709b402060001b6126ef565b600073ffffffffffffffffffffffffffffffffffffffff168373ffffffffffffffffffffffffffffffffffffffff1614156121d5576040517f08c379a00000000000000000000000000000000000000000000000000000000081526004016121cc90612f99565b60405180910390fd5b6122017f69f18b83ab939558d4dbdafaeed9ee048fb45b2987eefc085b7e9017452c0a3860001b6126ef565b61222d7f1b779114ca0caf723599bc10affcf7cefa9b58b06dee800eab0ce29f8531db1060001b6126ef565b6122597f26333ab734e23f01ee61b79a77bd6110db52320f6b6405c62ac704ca8162233d60001b6126ef565b60008060003373ffffffffffffffffffffffffffffffffffffffff1673ffffffffffffffffffffffffffffffffffffffff16815260200190815260200160002083815481106122d1577f4e487b7100000000000000000000000000000000000000000000000000000000600052603260045260246000fd5b90600052602060002090600502016040518060a00160405290816000820180546122fa90613311565b80601f016020809104026020016040519081016040528092919081815260200182805461232690613311565b80156123735780601f1061234857610100808354040283529160200191612373565b820191906000526020600020905b81548152906001019060200180831161235657829003601f168201915b505050505081526020016001820154815260200160028201805461239690613311565b80601f01602080910402602001604051908101604052809291908181526020018280546123c290613311565b801561240f5780601f106123e45761010080835404028352916020019161240f565b820191906000526020600020905b8154815290600101906020018083116123f257829003601f168201915b5050505050815260200160038201805461242890613311565b80601f016020809104026020016040519081016040528092919081815260200182805461245490613311565b80156124a15780601f10612476576101008083540402835291602001916124a1565b820191906000526020600020905b81548152906001019060200180831161248457829003601f168201915b5050505050815260200160048201548152505090506124e27fbb4cbdb364544ecd348128895f380448a11d4cee016cdec07234dfe84354eb9560001b6126ef565b61250e7fe548568b35d57efecf7d090136185fe3ac9867df6854f8aac03fc984166472f760001b6126ef565b6000808573ffffffffffffffffffffffffffffffffffffffff1673ffffffffffffffffffffffffffffffffffffffff1681526020019081526020016000208190806001815401808255809150506001900390600052602060002090600502016000909190919091506000820151816000019080519060200190612592929190612721565b506020820151816001015560408201518160020190805190602001906125b9929190612721565b5060608201518160030190805190602001906125d6929190612721565b5060808201518160040155505061260f7f3f260e3447d59621bbe15e30c9b050a03bf3ea3ecd5e72a6bae98fc15b144a1e60001b6126ef565b61263b7f2a3519087191db7a997e3fdb29acfef33bf327d60cd6f0302eaec56c078fa65d60001b6126ef565b7f5b098669427a36c497b9ca5a8269a84d3e1ce05f9e9ac537d4b1de8a6f06dbc38482600001518360200151846040015185606001514260405161268496959493929190612e5e565b60405180910390a16126b87f5a999544fe5963200ed7d74845659ce0bb75b7e89f03c979f4fa035c64ca933960001b6126ef565b6126e47f75c683b4b18f361fc531cac11ef77b64565c12c4dc5290bf16506a69fbb59b1560001b6126ef565b600191505092915050565b50565b6040518060a0016040528060608152602001600081526020016060815260200160608152602001600081525090565b82805461272d90613311565b90600052602060002090601f01602090048101928261274f5760008555612796565b82601f1061276857805160ff1916838001178555612796565b82800160010185558215612796579182015b8281111561279557825182559160200191906001019061277a565b5b5090506127a39190612874565b5090565b8280546127b390613311565b90600052602060002090601f0160209004810192826127d55760008555612823565b82601f106127e65780548555612823565b8280016001018555821561282357600052602060002091601f016020900482015b82811115612822578254825591600101919060010190612807565b5b5090506128309190612874565b5090565b50805461284090613311565b6000825580601f106128525750612871565b601f0160209004906000526020600020908101906128709190612874565b5b50565b5b8082111561288d576000816000905550600101612875565b5090565b60006128a461289f8461315b565b613136565b9050828152602081018484840111156128bc57600080fd5b6128c78482856132cf565b509392505050565b6000813590506128de8161364a565b92915050565b600082601f8301126128f557600080fd5b8135612905848260208601612891565b91505092915050565b60008135905061291d81613661565b92915050565b6000806040838503121561293657600080fd5b6000612944858286016128cf565b92505060206129558582860161290e565b9150509250929050565b6000806000806080858703121561297557600080fd5b600085013567ffffffffffffffff81111561298f57600080fd5b61299b878288016128e4565b94505060206129ac8782880161290e565b935050604085013567ffffffffffffffff8111156129c957600080fd5b6129d5878288016128e4565b925050606085013567ffffffffffffffff8111156129f257600080fd5b6129fe878288016128e4565b91505092959194509250565b600060208284031215612a1c57600080fd5b6000612a2a8482850161290e565b91505092915050565b6000612a3f8383612d21565b905092915050565b612a5081613287565b82525050565b6000612a618261319c565b612a6b81856131bf565b935083602082028501612a7d8561318c565b8060005b85811015612ab95784840389528151612a9a8582612a33565b9450612aa5836131b2565b925060208a01995050600181019050612a81565b50829750879550505050505092915050565b612ad481613299565b82525050565b6000612ae5826131a7565b612aef81856131d0565b9350612aff8185602086016132de565b612b0881613401565b840191505092915050565b6000612b1e826131a7565b612b2881856131e1565b9350612b388185602086016132de565b612b4181613401565b840191505092915050565b6000612b57826131a7565b612b6181856131f2565b9350612b718185602086016132de565b80840191505092915050565b6000612b8a6014836131e1565b9150612b9582613412565b602082019050919050565b6000612bad600d836131e1565b9150612bb88261343b565b602082019050919050565b6000612bd0600c836131e1565b9150612bdb82613464565b602082019050919050565b6000612bf36014836131e1565b9150612bfe8261348d565b602082019050919050565b6000612c166029836131e1565b9150612c21826134b6565b604082019050919050565b6000612c39600f836131e1565b9150612c4482613505565b602082019050919050565b6000612c5c601c836131e1565b9150612c678261352e565b602082019050919050565b6000612c7f601b836131e1565b9150612c8a82613557565b602082019050919050565b6000612ca26019836131e1565b9150612cad82613580565b602082019050919050565b6000612cc56013836131e1565b9150612cd0826135a9565b602082019050919050565b6000612ce86024836131e1565b9150612cf3826135d2565b604082019050919050565b6000612d0b6014836131e1565b9150612d1682613621565b602082019050919050565b600060a0830160008301518482036000860152612d3e8282612ada565b9150506020830151612d536020860182612e29565b5060408301518482036040860152612d6b8282612ada565b91505060608301518482036060860152612d858282612ada565b9150506080830151612d9a6080860182612e29565b508091505092915050565b600060a0830160008301518482036000860152612dc28282612ada565b9150506020830151612dd76020860182612e29565b5060408301518482036040860152612def8282612ada565b91505060608301518482036060860152612e098282612ada565b9150506080830151612e1e6080860182612e29565b508091505092915050565b612e32816132c5565b82525050565b612e41816132c5565b82525050565b6000612e538284612b4c565b915081905092915050565b600060c082019050612e736000830189612a47565b8181036020830152612e858188612b13565b9050612e946040830187612e38565b8181036060830152612ea68186612b13565b90508181036080830152612eba8185612b13565b9050612ec960a0830184612e38565b979650505050505050565b60006020820190508181036000830152612eee8184612a56565b905092915050565b6000602082019050612f0b6000830184612acb565b92915050565b600060a0820190508181036000830152612f2b8188612b13565b9050612f3a6020830187612e38565b8181036040830152612f4c8186612b13565b90508181036060830152612f608185612b13565b9050612f6f6080830184612e38565b9695505050505050565b60006020820190508181036000830152612f9281612b7d565b9050919050565b60006020820190508181036000830152612fb281612ba0565b9050919050565b60006020820190508181036000830152612fd281612bc3565b9050919050565b60006020820190508181036000830152612ff281612be6565b9050919050565b6000602082019050818103600083015261301281612c09565b9050919050565b6000602082019050818103600083015261303281612c2c565b9050919050565b6000602082019050818103600083015261305281612c4f565b9050919050565b6000602082019050818103600083015261307281612c72565b9050919050565b6000602082019050818103600083015261309281612c95565b9050919050565b600060208201905081810360008301526130b281612cb8565b9050919050565b600060208201905081810360008301526130d281612cdb565b9050919050565b600060208201905081810360008301526130f281612cfe565b9050919050565b600060208201905081810360008301526131138184612da5565b905092915050565b60006020820190506131306000830184612e38565b92915050565b6000613140613151565b905061314c8282613343565b919050565b6000604051905090565b600067ffffffffffffffff821115613176576131756133d2565b5b61317f82613401565b9050602081019050919050565b6000819050602082019050919050565b600081519050919050565b600081519050919050565b6000602082019050919050565b600082825260208201905092915050565b600082825260208201905092915050565b600082825260208201905092915050565b600081905092915050565b6000613208826132c5565b9150613213836132c5565b9250827fffffffffffffffffffffffffffffffffffffffffffffffffffffffffffffffff0382111561324857613247613374565b5b828201905092915050565b600061325e826132c5565b9150613269836132c5565b92508282101561327c5761327b613374565b5b828203905092915050565b6000613292826132a5565b9050919050565b60008115159050919050565b600073ffffffffffffffffffffffffffffffffffffffff82169050919050565b6000819050919050565b82818337600083830152505050565b60005b838110156132fc5780820151818401526020810190506132e1565b8381111561330b576000848401525b50505050565b6000600282049050600182168061332957607f821691505b6020821081141561333d5761333c6133a3565b5b50919050565b61334c82613401565b810181811067ffffffffffffffff8211171561336b5761336a6133d2565b5b80604052505050565b7f4e487b7100000000000000000000000000000000000000000000000000000000600052601160045260246000fd5b7f4e487b7100000000000000000000000000000000000000000000000000000000600052602260045260246000fd5b7f4e487b7100000000000000000000000000000000000000000000000000000000600052604160045260246000fd5b6000601f19601f8301169050919050565b7f4e616d652063616e6e6f7420626520656d707479000000000000000000000000600082015250565b7f4e756c6c20616464726573732100000000000000000000000000000000000000600082015250565b7f546f20796f757273656c66210000000000000000000000000000000000000000600082015250565b7f486173682063616e6e6f7420626520656d707479000000000000000000000000600082015250565b7f4d696d6520747970652063616e6e6f74206265206c6f6e676572207468616e2060008201527f3132382062797465730000000000000000000000000000000000000000000000602082015250565b7f4e6f2066696c657320666f756e64210000000000000000000000000000000000600082015250565b7f53697a65206d757374206265206c657373207468616e20322a2a333000000000600082015250565b7f53697a65206d7573742062652067726561746572207468616e20300000000000600082015250565b7f4d696d6520747970652063616e6e6f7420626520656d70747900000000000000600082015250565b7f496e646578206f7574206f6620626f756e647300000000000000000000000000600082015250565b7f4e616d652063616e6e6f74206265206c6f6e676572207468616e20353132206260008201527f7974657300000000000000000000000000000000000000000000000000000000602082015250565b7f496e646578206f7574206f6620626f756e647321000000000000000000000000600082015250565b61365381613287565b811461365e57600080fd5b50565b61366a816132c5565b811461367557600080fd5b5056fea2646970667358221220d71daf9d6a34ca8cac1c05af3f5843104dade98a63dbf2b7c05e5bf44d5972c264736f6c63430008040033",
  "linkReferences": {},
  "deployedLinkReferences": {}
}